:1000000080850020AD3E000019130200993E0000DB
:10001000993E0000993E0000993E0000000000005B
:100020000000000000000000000000009D3F0000F4
:10003000993E000000000000393F0000993E00009A
:1000400089410000F57001008941000089410000EC
:100050008941000089410000894100008941000078
:100060008941000089410000894100008941000068
:100070008941000089410000894100008941000058
:100080008941000089410000894100008941000048
:100090008941000089410000894100008941000038
:1000A0008941000089410000894100008941000028
:1000B0008941000089410000894100008941000018
:1000C0008941000089410000894100008941000008
:0C00D000894100008941000089410000C6
:0400DC00FFFFFFFF24
:1000E00053B94AB9002908BF00281CBF4FF0FF319F
:1000F0004FF0FF3000F00CB8ADF1080C6DE904CE04
:1001000000F008F8DDF804E0DDE9022304B07047F0
:10011000704700BF2DE9F04786468C460846089E8A
:10012000154674461946002B40F0C2808542B2FA4B
:1001300082F245D94AB1C2F1200300FA02FC2EFA3C
:1001400003F3954043EA0C0C94404FEA154EA8B2D5
:10015000BCFBFEF8230C0EFB18CC08FB00F943EAAD
:100160000C43994528D9EB1808F1FF3704D299457B
:1001700002D9A8F102072B44A3EB0903A4B2B3FBF5
:10018000FEFC0EFB1C330CFB00F044EA0344A042CF
:1001900014D92C190CF1FF3304D2A04202D9ACF1CE
:1001A00002032C44241A43EA07401EB1D440002322
:1001B00034607360BDE8F0874746DDE76346F1E7EA
:1001C00092BB431B01214FEA154EAFB2B3FBFEFCBD
:1001D000200C0EFB1C330CFB07F840EA0343984548
:1001E00062D9EB180CF1FF3004D2984502D9ACF17A
:1001F00002002B44A3EB0803A4B2B3FBFEFC0EFBEE
:100200001C330CFB07F744EA0344A7424ED92C19D0
:100210000CF1FF3304D2A74202D9ACF102032C4403
:10022000E41B43EA0040C0E7C2F1200320FA03F1D7
:10023000954090402EFA03F303434FEA154EAFB2B8
:10024000B1FBFEFC0EFB1C10190C0CFB07F841EA7D
:100250000041884504FA02F422D969180CF1FF30F4
:1002600004D2884502D9ACF102002944A1EB08016F
:100270009BB2B1FBFEFC0EFB1C110CFB07F743EA23
:1002800001439F420ED9EB180CF1FF3104D29F427B
:1002900002D9ACF102012B44DB1B41EA004192E799
:1002A0006046E3E76146F7E76046A3E76346B7E7E2
:1002B000834206D916B9002108467BE7C6E900E06B
:1002C000F9E7B3FA83F78FB9834201D3724508D8AF
:1002D000BEEB020460EB030301209C461EB9002123
:1002E00068E73846FAE7C6E9004CF8E7C7F1200CA2
:1002F000BB4022FA0CF41C432EFA0CF120FA0CF34A
:10030000B84001434FEA14490EFA07F5B3FBF9F878
:100310001FFA84FE09FB18300B0C08FB0EFA43EAA7
:1003200000439A4502FA07F240D9E31808F1FF307A
:1003300004D29A4502D9A8F102002344A3EB0A0390
:1003400089B2B3FBF9F809FB183308FB0EFE41EA4A
:1003500003418E452CD9611808F1FF3304D28E4534
:1003600002D9A8F10203214443EA0040A0FB02980D
:10037000A1EB0E014145CE46434602D306D14D4581
:1003800004D2B9EB020E68EB04030138002EA6D0AC
:10039000B5EB0E0261EB030101FA0CFC22FA07F344
:1003A0004CEA0303F940C6E9003198E74046C5E747
:1003B0004346D9E7034611F8012B03F8012B002A25
:1003C000F9D17047034613F8012B002AFBD1181A04
:1003D00001387047000000002DE9F041444D82B023
:1003E000D5F85C31996811F0010100AF21D13A1DB7
:1003F00040F6034005F030F80446002872D17868D2
:10040000C3681B789BB9BFF35B8FD5F8D430BFF3BB
:100410005B8F05F1D40203F00903BFF35B8F52E851
:10042000001F42E80034002CF9D1BFF35B8F19F0B4
:1004300099FD3A1D002141F2030005F00DF8044634
:1004400000284FD17B682B4EDA68D2F80100D2F831
:10045000051003C6184619F085FD21463A1D41F2E4
:10046000010004F0F9FF044600283BD17868C36816
:100470005A7885F870205A88A5F872201A7985F87C
:100480007120B3F80720A5F87420B3F80530A5F85B
:10049000763019F067FD21463A1D41F2020004F062
:1004A000DBFF0446F0B9D7F80480D8F80C20531CC1
:1004B000413218685968344603C4083393422646CB
:1004C000F7D10D4820F0C8FF404619F04BFD95F8D4
:1004D0007C305A0616D4094A0948012121F066F8F1
:1004E0006FF0120420460837BD46BDE8F08100BF1A
:1004F000000000207800002080000020EF83020030
:10050000545302003A1D002142F2030004F0A4FFFC
:1005100004460028E6D17B68A34EDA68D2F80100D1
:10052000D2F8051003C6184619F01CFD21463A1DE5
:1005300042F2020004F090FF04460028D2D17C6809
:10054000E368B3F8012091B249B1D97839B1A5F87F
:100550000421DA78114606F1280024F036F9204605
:1005600019F000FD95F87C6016F0200618D10221E4
:1005700040F66D4004F04AFE0446002800F0CA80B0
:1005800002210C3023F076F80123037046702146D7
:10059000324640F66D4004F05FFF04460028A1D1CA
:1005A00095F89C301B0712D53A1D002142F21C0021
:1005B00004F052FF0446002894D17868C368D3F849
:1005C0000120D3F80530C5E9382319F0CBFC95F8A4
:1005D000D8309E0622D5B91C384604F0B5FF044633
:1005E00000287FF47FAF042142F2240004F00EFEC5
:1005F0000646002800F08E8004210C3023F03AF8E3
:100600003B8803807B8843802246314642F22400A7
:1006100004F022FF044600287FF464AF95F8D83038
:100620005C0610D53A1D002142F22A0004F014FFA6
:10063000044600287FF456AF7868C3685B7885F875
:10064000203119F08FFC082142F2010004F0DEFD98
:10065000044600285ED008210C3023F00BF895F8F2
:10066000D81011F0400F024640F2022308BF0323C6
:1006700088074CBF43F02C0043F00C008B0695F824
:10068000D93048BF40F0400013F0090F95F8A23070
:1006900018BF40F4006003F00603CE0748BF40F0E7
:1006A0001000062B08BF40F4C070002120F0A0FF0E
:1006B0002146002242F2010004F0CEFE044600284A
:1006C0007FF410AF95F87C30B5F80411980624D467
:1006D000C9B93A1D41F2050004F0BEFE04460028E7
:1006E0007FF400AFB5F804317C684BB9E368B3F828
:1006F0000120A5F804219A882C48114624F065F8B9
:10070000204619F02FFC082140F6014004F07EFD40
:10071000044660B96FF06804E4E60029F3D1244A86
:100720002448012120F042FF6FF00404DAE608219A
:100730000C3022F09FFF95F8D830D907024629D413
:100740001D484FF0005120F053FF2146002240F693
:10075000014004F081FE044600287FF4C3AE014648
:100760003A1D4FF6014004F077FE48B3134A114892
:10077000022120F01BFF05F02BFF044600287FF428
:10078000B1AE07F0CBFA044600287FF4ABAE05F01B
:1007900079FAA7E602A1D1E90001D4E7AFF300801E
:1007A0009088000200800020D8000020080100206E
:1007B00013840200545302001088000236840200A1
:1007C0007B68DC68B4F80130032B96BF434A444988
:1007D00052F823106D468AB06A464248D3614FF4FE
:1007E00000731384404BC2E9050142F8103F3F48B3
:1007F0004FF4135120F0EDFEB4F80120B4F80330AB
:10080000022AAD4648D1032B46D8394A52F8231064
:100810006D468AB06A463748D3614FF4007313843B
:10082000314BC2E9050142F8103F4FF413512F48F4
:1008300020F0CFFE6379A679D4F80900032BAD46EA
:1008400098BF2D4AB4F8075094BF52F8231024499A
:100850006C468CB06A46DFF8A4C0C2E907364FF494
:1008600000739385264BC2E905C1C2E909504FF4D4
:10087000735142F8103F1D4820F0ABFEA546786842
:1008800019F070FB3A1D00214FF6024004F0E4FD20
:10089000044618B11B4A6AE71149B9E778681A4D4E
:1008A000C368B3F80130A5F8C13019F05BFB95F8C7
:1008B000C1305B077FF55FAF3A1D21464FF603401D
:1008C00004F0CAFD08B1114A51E77868C3685B7843
:1008D00085F8C03019F046FB4DE700BF58590200BB
:1008E0005D8202005A840200040000015453020099
:1008F0004859020073840200385902008B840200B8
:1009000007000001B884020000000020E18402001A
:100910002DE9F843D0E90C35D0F82C805C1930343F
:10092000A0450F46164619D81D4DA3FB05011AA375
:10093000D3E90023FFF7D4FB0346A4EB0800A0FB98
:10094000050123F07F4414A3D3E90023FFF7C8FB7C
:1009500020F07F403C603060BDE8F883DFF84090D5
:100960000DA3D3E90023A8FB0901FFF7B9FB044657
:1009700005F1300008A3D3E90023A0FB0901FFF72C
:10098000AFFB24F07F4420F07F403C603060BDE846
:10099000F88300BFAFF300808D49FD1A0700000007
:1009A00000CA9A3B00000000002800F046812DE9B3
:1009B000F04FC94C94F86A2012F001058DB040F058
:1009C000788194F82500FF2300F0030084F8263096
:1009D00016F028F894F86A00420727D494F82920E2
:1009E00094F8353004EB820204EB8303D66AD3F823
:1009F000388086B1B84831460FF018FE33785B0670
:100A000005D506210BF0A2F8002800F05481B24869
:100A100041460FF00BFE337813F00E0F40F09E802E
:100A2000236A93B10C200DB0BDE8F08F2A4604F183
:100A30006B01C0F3C00016F065F9FF2884F82600AA
:100A4000CCD0284616F008F8C8E70DF0CDFA81465C
:100A5000002800F054810DF0D3FA8246002800F0FF
:100A60004B8110F0CBF80546002800F04A81D0F801
:100A700088004FF6FF732B8505F11C0B002800F052
:100A8000208105F17C0205F178010BF06BF8B5F8D7
:100A9000763023F4EF6323F0070343F4887343F0C5
:100AA0000103A5F8763095F8393003F03F0363F081
:100AB0007F0385F8393095F88E3023F0070385F8E9
:100AC0008E3095F83C3023F00703002785F83C3042
:100AD0004FF4C023C5F888312846C5E91277C5F818
:100AE0008870A5F88C706F86C5F82E7085F83B70FD
:100AF0002F65A5F88E71A5F8847112F0DDF985F8DF
:100B00005071C5F8549110F001FB95F8943160F3E1
:100B1000020385F8943110F0FFFA95F8943160F3F0
:100B2000C50385F8943195F8803167F3410385F862
:100B300080310121284610F0FBFE05F1D40011F0B0
:100B400075FFC4E9189AC4F820B0C5E905772F707D
:100B5000ED6117F079F8002840F0AF8094F8243068
:100B60000121C3F342030DF12B008DF82B300BF064
:100B700095F90246002862D098F8011030460FF02F
:100B800019FB31235549A360554BB4F86870A0FB9D
:100B900001010025C01841F107014DA3D3E900234D
:100BA000C4E9055525706560E560FFF799FA206195
:100BB0000CF074FB00F109083FB9357805F00F051A
:100BC000A5F10105B5FA85F56D0994F824002369AE
:100BD00065F3000010F0010584F8240036D0414A86
:100BE00009920020106002253F4A404F04930BAE4B
:100BF000019305920321CDE902000694434600903B
:100C0000089607972A460B950CF04AFA31460DF0E4
:100C10007FFAA0B9364905914AF2D8330093CDE95D
:100C20000300CDE901000797089606944346012288
:100C300003210B950CF018FA2EE00FF00BBA236A83
:100C4000002B3FF4EFAE0FF0C3F9EBE6254A29483D
:100C5000049303F247130694029591211360A7FBB6
:100C6000000301FB0731214B07931F4B05934FF600
:100C7000FF730992022703930BAE15A3D3E9002358
:100C80000B970896FFF72CFA4346CDE900503A46F9
:100C9000284603210CF004FA31460DF039FA0028F9
:100CA000CDD194F86A300120034384F86A3015F0FE
:100CB0009BFE0020B7E61220B5E60FF089F903206D
:100CC000B1E605F18000C5F88800DAE6AFF30080F0
:100CD0008D49FD1A070000004824002000CA9A3BF5
:100CE0008C49FD1A3C24002031020100F1D30000A0
:100CF0004DFD0000002AE78448460DF07BF90720EF
:100D000091E650460DF082F948460DF073F9F6E78A
:100D100070B590F824308AB0C3F342030D46044600
:100D200001210DF1230016468DF823300BF0B6F8A3
:100D30007178024628460FF03DFA1F491F4AA0FB72
:100D40000131981841F1070119A3D3E90023FFF7F6
:100D5000C7F923699842054621D21B1A0022019245
:100D6000174A0293174BA21AA3FB023202219209DF
:100D700000230A4409AE099113490591CDE90333D3
:100D80000321D2B20696009318460CF0E9F93146D9
:100D90000DF0BEF938B9256100200AB070BDFBD94D
:100DA000C21A0023DBE70C200AB070BDAFF300804D
:100DB0008D49FD1A0700000000CA9A3B8C49FD1AB4
:100DC0004824002009CB3D8DF1D300000000000035
:100DD0002DE9F04F05468BB08B46012002219A4643
:100DE000144618F045FE00220221814601200AF037
:100DF00009FF39494FF4D07228460AF093FEC61C09
:100E0000F6B2364B00953246012100200CF0C0F9B5
:100E100010F0FD0F0CD0324A3249334840F632030D
:100E20001EF0BEFC404080F311884FF0030002DF4B
:100E30002E4BA4FB0348204625A3D3E900234146BB
:100E4000FFF74EF9089506952B690493284B20F07F
:100E50007F47A7FB0331E01A264B07934FF00702A9
:100E6000254B059302FB07114FF6FE7368EB01015A
:100E700003934FF47A720023FFF732F9CDF800B0F4
:100E8000CDE9017053463246012100200CF0ECF808
:100E900010F0FD0F0CD0124A1249134840F64703D8
:100EA0001EF07EFC404080F311884FF0030002DF0B
:100EB000B9F1000F02D10BB0BDE8F08F0122022181
:100EC00010460BB0BDE8F04F0AF09CBEAFF30080B7
:100ED0008D49FD1A0700000018130020A50B010022
:100EE000A463020068640200705D020000CA9A3BBD
:100EF0008D49FD1A4D0B0100455E01000000000008
:100F00002DE9F043C469228D4FF6FF739A428DB0EC
:100F100000F088800546204612F056FA95F82830F1
:100F2000012B00F00F81022B00F00281002B00F05A
:100F3000E18094F85071002F40F0FD80E68DB4F808
:100F40003080002E71D1AA8C08F101060023CDE972
:100F50000A33B6B2002A70D094F93930002BC0F2AF
:100F600048810023A4F88A3195F82630D90740F14A
:100F7000EF800023A4F88E310DF127023146204680
:100F800011F0D6FF743000F04681B4F888312BB1EF
:100F9000B34240F20D819B1BA4F88831B4F8843130
:100FA0002BB1B34240F2FB809B1BA4F88431258E09
:100FB00017B9A84500F0EA800135ADB294F8D130F8
:100FC00013F001065AD1DDE90A130A46002B40F05E
:100FD000ED80002900F0DC801E461846228DE46971
:100FE0000694CDE903570332A74D0290CDE90016D0
:100FF000D2B20121002005950CF0B2F810F0FD0FDF
:1010000010D00DF0AFF884420CD0A04AA049A148FE
:101010004FF4A3631EF0C4FB404080F311884FF0EF
:10102000030002DF0DB0BDE8F083AA8C4644002324
:10103000CDE90A33B6B2002A8ED195F82630DA0708
:1010400097D4B4F88A31002B00F08280B34240F28A
:10105000FA809B1BA4F88A31B4F88E31002B8BD018
:101060009E4280F0DE809B1B9BB20022062BA4F8E0
:101070008E31228600F2AC8001277DE794F9392079
:101080006FF30003002A84F8D13077DB94F8760000
:10109000C0F3C00100F0070016F03CFCB4F86E206D
:1010A000B4F86C30134403F2D51303447A4A7B48F6
:1010B0000721E3FB0021104671A3D3E90023FFF7CA
:1010C0000FF8DDE90A1320F07F4220692261904287
:1010D00035BF161A801A002000260A46002B7FF41E
:1010E0007DAF56EA010C7FF479AF002850D0194645
:1010F0001E4673E794F88E3003F01803182B7FF424
:1011000018AFA18DB4F886218B1D9A42C4BF931FDE
:101110005B1AB4F88211CCBF9BB21346994200F01F
:101120008C80A4F88231A4F88431A4F8882100E7E7
:101130003D2784F85071394620460DB0BDE8F04394
:1011400010F0C4B80023A4F88831A4F88431F0E684
:10115000B4F88E31002B83D1628DB4F88C3140F21B
:10116000E24101FB02F242F2107101FB0323013B59
:10117000B3FBF2F39BB2A4F88E316FE794F87700DB
:10118000012100F0070016F0C7FB87E73D4615E791
:10119000002D4BD000261146304633461EE7002373
:1011A000A4F88431204611F063FF00E7304615E7CC
:1011B0000CF06CFF014600283BD00023A4F88831D6
:1011C000238DC3801B23037100680CF031FFE5E61B
:1011D00094F939309342BFF6CFAEB8F1000F7FF4E7
:1011E0004BAFD4F878315A08DB0743D4C4F87821E0
:1011F000C2E628460AAA0BA904F1D409FFF788FB26
:10120000484611F055FC18B3484611F051FC18B38C
:1012100000232386A5E69DF82710204610F056F8F7
:1012200000E70821204610F051F8FBE6002FB1D16D
:10123000F8E60123A4F88831B0E6B4F88811002953
:101240007FF477AE6FE73E21204610F03FF8E9E6E5
:10125000FF200FF0FDFFD7E70246D4E91E010AF098
:1012600099FC0028D4D194F83C30580744BFA38D92
:10127000238676E642F00042C4F87821FCE600BFFF
:101280008D49FD1A070000000D0B0100A463020048
:10129000CC640200705D02008C49FD1A00CA9A3BC2
:1012A0002DE9F04F87B0CDE90423BDF84420037841
:1012B0000292BDF84820BDF84080BDF84C50468EE3
:1012C000B0F82E90B0F814B1019104460392002BAF
:1012D00000F08E80013EB6B2A368D4F80C71721B88
:1012E00092B2002B009209DAE168626823F00043B1
:1012F00091422CBF7F18BF18A360FF1A009A638D1C
:1013000013FB02F39BB2B3FBF8F218FB02F080B2BE
:1013100083421FFA82FA5AD2C01A40F2E2425E4970
:1013200002FB00F0A0FB010159A3D3E90023FEF763
:10133000D7FE20F07F400744D94494F839304D441B
:10134000AD1B554440F2E246DB09E58506FB08F596
:1013500052D1524A5249534840F6BD031EF020FA7A
:10136000404080F311884FF0030002DF0026A946B9
:10137000029BA385039BA4F88C3129462046A4F840
:101380002A8011F011FE484BA18D2B44881DB3FB20
:10139000F5F39AB29042A4F8862102D2521A063A84
:1013A00092B2019BA4F8822113B10023A4F88E31DC
:1013B0003B464A4631462046FFF70AFD94F8803105
:1013C00043F0010384F8803107B0BDE8F08F08FBDB
:1013D0001231314840F2E24389B203FB01F1A1FB33
:1013E00000012BA3D3E90023FEF77AFE3F1AA3E7FF
:1013F0004E445E44B6B26FE7226C0099A36CDFF8EE
:1014000098B002FB1133A36416F06EFC814694F889
:101410007401C0F3420016F069FC049B814406FB92
:1014200003F305FB09F9236509F574291F4B09F23C
:101430003F29A3FB09394FEA994303FB0AF02364D0
:10144000A5EB0309A36C6A080344963A934228BFAC
:101450001346C4E911230023C4F87C31A0FB0B011F
:101460000BA3D3E90023FEF73BFE114B059A3F1A6D
:10147000A3FB0230800A06FB00F005A3D3E900239A
:10148000A0FB0B01FEF72CFE20F07F4670E700BFAB
:101490008D49FD1A0700000000CA9A3BA4630200B0
:1014A000F05D0200705D02007FC3C90183DE1B4353
:1014B0005917B7D1000000002DE9F04F0B6891F8E3
:1014C0001180D3F80090037F176895B00446C3F3EA
:1014D0008013D0F81E008DF83F30B8F1FF0F638CF9
:1014E00012900E461546ADF84C300DF1480A49D120
:1014F0009AE803001090ADF844102346E28D53F8AB
:101500002EBB9B78AB722A81D4F82A306B60D4F85A
:101510003A30AB6105F1180094F83E3003710521B3
:101520000AF0BCFC6B7F00F03F0060F305036B77B3
:1015300094F83F30C3F30402AA77A28EEA8101280F
:1015400003F01F0392B205D91B3303F01F030B2BCB
:1015500000D81ABB0022C9F8142095F8203062F395
:10156000000385F82030E56801265846214626719B
:101570000CF052FD28682E7129460CF059FD15B06B
:10158000BDE8F08F10AA0DF13F01404614F062FF54
:101590009DF83F3002338DF83F30AEE733680021CD
:1015A0005960E38EEA892B8240F2E24303FB02F2A8
:1015B0000B92638E0D93384611F00AFD94F83F208C
:1015C00097F87411520962F3430187F8741116F009
:1015D0008BFB0C9097F87401C0F3420016F086FB69
:1015E0000C9A0B99104401FB00F0B94A00F57420E5
:1015F00000F23F20A2FB00204A08800C963A686265
:10160000AA6294F8312040F2E24302FB03F3AB6399
:10161000238FA7F88C31384611F0C6FC0B99AD4BDF
:10162000AD4AC7F890210B44B3FBF1F39AB2A7F887
:101630008621298A881D824204DDC1F57F41FA3165
:101640000A4492B2A7F882216B68C7F87831234622
:1016500013F81C2FC2F340120C92DA0700F1FB8042
:101660004FF48073A38399F8260015F05FFC04F112
:101670002B03002800F0EB80626AC4F82B20228D37
:101680009A80B8F1FF0F00F00581BAF80430129883
:10169000A4F82930C4F825009DF83F30A3771098AE
:1016A000BDF84430C4F81F00A4F82330EB896386EA
:1016B0002B8AA386B7F88C31E38697F87431C3F38D
:1016C000420384F8383038460FF0A4FAA881E0804D
:1016D0002146584674680CF09FFCAB89E3801C23BC
:1016E00023710C9BD4F80080002B40F0C9800C9B28
:1016F0002377214640460CF09BFC95F85B00B5F83B
:101700005080B5F85240012100F0070016F004F9AE
:10171000444404F2D514DFF8C4810444824670487E
:101720000721E4FB080131230024BB607C6066A331
:10173000D3E90023FC60FEF7D3FC20F07F40386142
:101740000B9B6D6A0D995D1BF36840F2E24202FB50
:10175000013303F2B241A1EB0A0A22460221012021
:101760000AF050FA48460EF01DFF0246AAFB080197
:10177000924655A3D3E90023FEF7B2FCCDF80490BE
:10178000B3685849009120F07F480AF102023A3BC1
:10179000D2B22046434401210BF03CFD01287FD00A
:1017A00099F82430DB0763D438460FF033FA4B4BFB
:1017B000A5FB03A9044644A3D3E9002350464946A8
:1017C000FEF78EFC484BB668484A079220F07F45EA
:1017D000A5FB0331BAEB0300454B059340F2D1134F
:1017E000069708933B694FF0000BCDE903B34FF028
:1017F000070303FB051169EB01014FF47A72002323
:10180000FEF76EFC03343A3EE4B2CDE90150CDF868
:10181000008033462246012158460BF025FC10F08B
:10182000FD0F0CD0334A344934484FF4E9731DF0AE
:10183000B7FF404080F311884FF0030002DF012220
:10184000022110460AF0DEF915B0BDE8F08FC4F8A9
:101850002B00988015E7274A29492848F8231DF0CE
:101860009FFF404080F311884FF0030002DFF7E64E
:10187000002301220093184611460BF089FC93E7E0
:101880006B7F43F040036B77281D14F0EDFB0123C1
:10189000E8832DE70022C4F82520A4F82920FBE6E0
:1018A0000CF060FC81453FF47BAF124A15491348A8
:1018B00040F279231DF074FF404080F311884FF00F
:1018C000030002DF6CE700BF8D49FD1A070000002E
:1018D00083DE1B437FC3C901404B4C0000CA9A3BC7
:1018E0008C49FD1A095E01008D49FD1AD95D010080
:1018F000455E01006869020068640200705D0200D4
:1019000018610200C4690200F0B5C468636883B05E
:101910000546002B63D117F017FC002017F06AFC76
:101920000021084617F058FC00222521082017F056
:1019300097FC454B019301A817F07AFC434940F20C
:101940005B6017F01DFD237AC3F3420262F30613B6
:101950002046237216F0DAFB15F0BCFB58BB637A05
:101960009B071FD127682E68384615F071FF064483
:101970006A6806F10901012017F04EFE17F00CFF0E
:1019800020460EF01BFE811C3246C9B2384615F0C7
:101990006DFF054670BB204615F002FF88B9002098
:1019A00003B0F0BD012015F013F84178821C0078D7
:1019B00017F0D2FDD6E7607A10F0030018BF0120BF
:1019C000F1E7234A2349244840F22C431DF0E8FE66
:1019D000404080F311884FF0030002DFDFE793F807
:1019E00020309A0797D01D48214617F06BFB17F05F
:1019F00083FCD4E7164A1A49174840F214431DF0F5
:101A0000CFFE184B0721A5FB030301FB05310CA3F7
:101A1000D3E90023FEF764FB1349024613481DF087
:101A2000BFFE404080F311884FF0030002DF1048F2
:101A3000214617F047FB17F05FFC6FF08B00AFE714
:101A400000CA9A3B00000000D6BE898E555555004D
:101A5000BC6D0200E45E0200705D0200F5790100D9
:101A6000F05D02008D49FD1A6C6E0200406E0200AE
:101A7000F97C0100000000002DE9F041C468A28952
:101A80004FF6FF739A4282B000F0C780054616F009
:101A900067FE2B89628AE08A1A4492B21044637FFF
:101AA000A28280B2411CE1825E064FF00001618299
:101AB00004F1180100F18C8003F03F000B46A17F78
:101AC000009004F11F0014F087FA0646D4E90B23B6
:101AD0001344D4E90D0200210244E1626163A16A6A
:101AE000A26394F872208B4228BF0B4612F00402C6
:101AF000236377D017F028FB002017F07BFB201D15
:101B000017F096FB2389A17A40F25B6043EA01411A
:101B100017F036FC304615F0BBFE2146584817F04A
:101B2000D1FA962017F06CFD94F85A2094F85B00D7
:101B3000C2F3C003002102F0070200F0070017F013
:101B400089FC204616F06CFE27682E68384615F092
:101B50007FFE06446A6806F10901002017F05CFD6B
:101B6000804617F0EDFD002017F004FE236B94F87B
:101B70005B0003F13002A36B00F00700012103EBCF
:101B8000420517F0ABFB4544054494F85B0000F0B8
:101B90000700022824D004280CBF4FF4BC7328236C
:101BA00001211D4417F09CFB284417F0BBFDA189BF
:101BB00003313246C9B2384615F058FE054698BB87
:101BC000204615F0EDFDD0B9002002B0BDE8F0814F
:101BD0000A4603F03F03E18B14F04AFA064675E724
:101BE0001823DDE7D4E9170109F0D4FF002881D1DB
:101BF00094F8723043F0040384F872307AE7214A93
:101C00002149224840F255131DF0CAFD404080F39F
:101C100011884FF0030002DFD6E71D48214617F078
:101C200051FA17F069FBCFE7164A1A49174840F2F4
:101C30004B131DF0B5FD184B0721A5FB030301FB5A
:101C400005310DA3D3E90023FEF74AFA13490246F2
:101C500013481DF0A5FD404080F311884FF00300AC
:101C600002DF1048214617F02DFA17F045FB6FF000
:101C70008B00AAE7AFF3008000CA9A3B0000000087
:101C80007D8A0100E46E0200E45E0200705D0200E5
:101C9000F5790100F05D02008D49FD1A386F0200F0
:101CA000406E0200D1790100F0B50B6991F8242053
:101CB0001B6885B005460C461C48009203211C4A4F
:101CC0001EF08AF9AB6821461B6828469847041E17
:101CD00008DA184A2346154801211EF073F92046F8
:101CE00005B0F0BDAB6801215B6828469847041E2B
:101CF00019DB114F114EAB6841F2883200929C689B
:101D000002AA03AB00212846A047041EE7DB029984
:101D100040F26762002338461CF0AAF90299304667
:101D200022F0ECFAE7E7064A2346D4E7A453020080
:101D30004D7402006F740200AC06002060060020A3
:101D40009274020090B58FB000AF314C204622F063
:101D50003FFA88B12269A168136823F40073136005
:101D60000B684FF42022092120469847002803DB06
:101D7000212000211CF046F9264A274803211EF0A5
:101D800018F9264C204622F023FA0346B0B9216800
:101D90006C4688B06A462248C2E905014FF40071DA
:101DA0009183204942F8101F1B484FF4E25101F083
:101DB00099F8A54600203C37BD4690BD1A4BFB6004
:101DC0001E22002107F11A0023F094F8174A184B3D
:101DD000C7E9042328233B763C237B763B1D3B62EB
:101DE000012387F8363087F83430124B4FF47A519C
:101DF000C7E90113042207F110012046FFF754FF41
:101E00000028D7DB0C4A044803211EF0D2F8D1E7A2
:101E1000AC500200AB740200A4530200C050020098
:101E2000B7740200030000016006002040420F006A
:101E3000E06735001000800CC774020001481DF0F7
:101E4000A2BC00BFDB740200044B05491870054BAF
:101E5000002818BF194604481DF095BC1433002013
:101E600001750200F97402000A75020011B10348FD
:101E70001DF089BC02481DF086BC00BF2F75020012
:101E80004F75020030B593B01FF0B7FF03780446DA
:101E900007AD032B24D8DFE803F0021D1F211349EF
:101EA0002846FEF787FAA379059562780492A2780E
:101EB0000392E278029222790192627900921E21C5
:101EC0000B4A0AA81CF0AEFF0A480AA91DF05BFCE9
:101ED00013B030BD0849E3E70849E1E70849DFE707
:101EE000084A0A2128461CF09DFFDCE75A750200CB
:101EF0007C7502009F750200617502006875020022
:101F0000727502006594020070B50020ADF6884D30
:101F100003F05EFF0646002834D11E4D1E481DF01A
:101F200032FC0FCD02AC0FC42B6823601B49009616
:101F30003346022202A804F0A1FD0146F0B1184880
:101F40001DF021FC1748184D05F0CEFE174801F092
:101F5000B7FB4FF0FF324FF0FF3302A928461CF0C9
:101F6000DDF804460028F4D102A800F025F84FF46B
:101F70004862214602A822F0BDFFEAE70C481DF0A6
:101F800002FCDFE701460B481DF0FDFB00200DF6CB
:101F9000884D70BD40540200D675020008550200FD
:101FA000ED75020070010020AC06002088010020C1
:101FB00013760200B675020070B50C4E86B004466A
:101FC00000F5486518220021684622F093FFCDE90C
:101FD00001641423694600201434ADF80C3007F076
:101FE0000FFEAC42EED106B070BD00BF2C55020012
:101FF0002DE9F04F91B08407009302F0040302939F
:10200000C2F3C20303F10103DDF8689003920546B1
:102010000E46059340F0BA81041D30B1072909D856
:102020006FF01B0011B0BDE8F08F01F00706341D02
:10203000C6F10806009B4FF00008591E4FF0040A35
:102040004FF0FF330193CDF810804746C346534607
:102050000DB1009A22600598002800F3E8809848A6
:10206000009A824203D397488242C0F0E080039AEC
:10207000A4EB050E92074FEA9E0000F103810F2F9B
:1020800000F2B180002D00F0058107F140020DEB58
:10209000020C019A0CF8200C0CF8102C049801305A
:1020A0000490E7E07A285DD84B280ED8472859D805
:1020B00029282DD8252852D054D820287AD0233842
:1020C000D0F1000B4BEB000B74E04C382E2849D8B4
:1020D000DFE800F0704848484848484848484848C1
:1020E0004B484848484848484859484B4B59595923
:1020F000704B6D487048184B184848827F4B4848D1
:102100004B487F0000204FF0000B4FF0040A38E0EE
:102110002A38C0B2012202FA00F010EA0E0F49D1AB
:1021200010F0625C2FD110EA020B43D06046013CF4
:102130005444B4FBFAF40AFB04F4002D61D0A3EB81
:10214000050CA444B4453FF66BAF002868D1042BBE
:1021500047D159F8043B2360043404232AE0019A50
:10216000013A01924FF0000B24E011F8010C6C28A9
:1021700034D111F8023C00206C2B8346C5D14FF0BE
:10218000080A5346D3E709F1070929F0070907347C
:10219000F9E802AB24F0070435B106982044B042B8
:1021A0003FF63EAFC4E900AB08344FF0000B4FF0F0
:1021B000080A534611F8010F002878D0BBF1000F30
:1021C0007FF470AF2528F5D1019B013301934FF0C7
:1021D000010B4FF0040AECE7584694E700208346D1
:1021E000A5E7082B02D06FF015001BE709F10709DE
:1021F00029F00709F9E80223C4E900230834082379
:10220000D8E768B9042B02D109F10409A4E7082B27
:10221000E9D109F1070929F0070909F10809EDE7F2
:10222000059A013A059259F8042B009210E7039A97
:10223000900720D5A4EB050E4FEA9E004FF0010C4D
:10224000BEF5007FCFD20F2FCDD8F5B107F14002F8
:102250000DEB020EC0B2019A0EF8200C0EF8102CF5
:10226000BCF1000F3FF41AAF60F07F000EF8200CB5
:1022700008F101080137C5F10802043406924FF64F
:10228000DA7E97E74FF0000CDAE7BCF1000F01D0DF
:102290000136EFE7029802360028EBD10098CDE92D
:1022A0000631FEF78FF8DDE906310644E2E7631BED
:1022B000B3F5806F97D23DB9A6F10804E018B1E6F6
:1022C000284F0200E89B0200029A28609B082B70AE
:1022D0009DF81030C2B1EB7085F80280B8F1000FA4
:1022E00005D008A80022C5F1010C97420ED1C5F116
:1022F00001030DF120094FF0000A01930DF1300B9D
:10230000574512D1601B8DE66B70E5E710F8013B75
:10231000190608D504EB0C0EB64503F07F033FF613
:102320007FAE04F8013B0132DFE7B8F1000F03D0C4
:1023300099F90020002A17DB029BD3B11AF80B2071
:1023400004F8012B0022019B98182044B0423FF66C
:1023500067AE99F8000004F8010B0099039220463B
:1023600022F0BAFD039A14440AF1010A09F10109A5
:10237000C6E799F8002055F822300093029B45F8F3
:1023800022300098FEF71EF8421CDCE76FF00D00CB
:1023900048E600BF2DE9F04F97B000AF90F802A0DB
:1023A000D7F880B03B62CBF3C0030446FA62BB614E
:1023B000894641B9457800780AEB800020444D45B4
:1023C00017D8A0EB0409E378FB61BAF1000F02D043
:1023D0001BF0010F16D1FB6953BBFB6A1BB13A6AB4
:1023E0004946204698474D4628465C37BD46BDE8DD
:1023F000F08F461C3046FDF7E5FF0130304409F10F
:102400000109DCE7237862687A62FA6A99007961E7
:1024100004EB8301002A40F000814D460E4601EB9B
:102420000A094FF000084E454CD101EB0A0610E0B6
:102430001BF0020FD1D023789A007A6162687A6229
:10244000FA6A04EB8301002A77D14D4601EB0A06B4
:1024500090461BF0050F0CBF02230123FB62FB69B2
:1024600006EB430A0BF00203BB625645BCD016F8DC
:10247000021B16F8013C54F82390AF4B994502D348
:10248000AE4B994536D3BB69002B40D0786A1DF01E
:1024900051F900283BD0E9468AB06A46A84B5361FF
:1024A0007B6AC2E906314FF400731384A54B42F8EE
:1024B000103FA54800234FF4125100F013FD023DD8
:1024C000CD46D2E716F8013BF96254F82300FDF738
:1024D00079FFD7F88430F96A01304BB1D7F88830EA
:1024E00098453EBFD7F8843023F8180008F101085A
:1024F000054498E7BB6923B1786A1DF01BF90028F1
:10250000C9D11BF0010F05D1FB6AED1AADE7BB6A1B
:10251000002BAAD04846FDF755FFD7F8843053B1B9
:10252000D7F8883098453FBFD7F88420431C22F85D
:10253000183008F10108054497E7BAF1000F72D08E
:102540001BF0040672D0D046002607F14800524620
:102550003B61B96222F0C0FCB96A3B6901EB0A0237
:10256000BA62FA69F9695200FA60BA6A02EB41028A
:102570003A610BF00202BA603A69B96A8A4257D1ED
:1025800062787A621BF0020F32440CBF4FEA5801A6
:1025900000211BF0010FD2B240F09F801BF0040F0E
:1025A00014BF40460020BB616270A070E1703A6ABF
:1025B0007969FB6A20469847051EFFF615AFBB698F
:1025C00023707B6A6370FB69E37041463A6AFB6A79
:1025D00084F802A007F148009847B0F10008C0F263
:1025E000B5807B693A6AA9EB0A01C91AFB68C91A66
:1025F000D7E90A0398470028C0F2AA80A84408EB4C
:1026000000054FF0000B07F1380AB34567D30021EE
:102610003A6AFB6A08469847E6E656464FF00008D5
:1026200007F1380093E75646D04697E7B04695E75E
:10263000BA6A12F8021BBA6212F8015C3E4A54F8F8
:102640002500904202D33D4A90421ED3BA6932B16E
:10265000786A7B601DF06EF87B6800288CD1BA68C0
:1026600002BB08F1280207F1300C08F10100944484
:1026700007F1580252FA80F008F102080CF8101C19
:102680005FFA88F800F8105C76E7BA693AB1786AC0
:102690007B601DF04FF87B6800287FF46DAF1BF066
:1026A000010F09D006F1280207F13000711C16183D
:1026B00006F8205CCEB25FE71BF0040F3FF45CAF7E
:1026C00008F1280207F1300008F1010102EB0008CF
:1026D00008F8105C5FFA81F84EE7002063E71BF80A
:1026E0000A3087F8373054F82390D7F88430FBB19C
:1026F00033F81B803A6AFB6A012107F137009847DB
:10270000002825DB0544B8F1000F06D14846FDF747
:1027100059FE00F101081FFA88F83A6AFB6A41463F
:1027200048469847002813DB05440BF1010B6CE782
:10273000D7F88480DEE700BF284F0200E89B020044
:1027400035760200040000018C53020045464BE63A
:10275000054649E6014B1860704700BFBC010020E8
:1027600080B505460E46174698461BF069FC0346A1
:1027700022F0D0FBDFF81890044649F800304246BA
:1027800030463946A84754F8090001F0A7FB00BFBE
:10279000080000002DE9F047058B04462807904605
:1027A00011D4022905F0070540F0CD8020461DF028
:1027B00058FA78B10138218B042811D8DFE800F0ED
:1027C000C3106D85950001290CBF45F0100545F03B
:1027D0002005258388F31188BFF36F8FBDE8F0874C
:1027E00001F0070AAA4500F0A6800027B9463E4638
:1027F000A368002B00F0BD8041F00801218388F31D
:102800001188BFF36F8FA168002900F0BB800D68AD
:10281000002900F0B780D1F80480334652462046A4
:10282000C047002D76D02B6829461D46F0E701F001
:1028300007035A1F012A1BD8002221F00701062B8B
:10284000276889B2C4E9002209D13B4603E0628BC4
:10285000013262831B68002BF9D141F00201218310
:1028600020461DF0FEF900287BD041F0200177E0E2
:10287000042B0AD121F0070189B2218320461DF0E3
:10288000F0F910B141F020012183218B01F0070AFA
:10289000AA4550D00027B946AAE7236921F00701CD
:1028A00041F00601062DD3F8009021832DD1B9F116
:1028B000000F40D041F00801218388F31188BFF355
:1028C0006F8F3A492046C84729E021F00701236964
:1028D00041F0040189B2042DD3F804902183E6D09D
:1028E00000273E464FF0040A82E721F007012369E2
:1028F00041F0050189B2052DD3F808902183D6D087
:1029000000273E464FF0050A72E700273E464FF08B
:10291000060A6DE72B4687E7B9F1000FD1D14FF0DA
:102920002003EFF3118883F31288BFF36F8F238B9B
:1029300023F008032383258BEA062ED525F0100308
:10294000238305F007056669218B002EBFF66FAF64
:1029500000232768C4E9003321F0070141F0010199
:102960002183218B01F0070AAA454FF000097FF46B
:102970003FAF002F9BD041F00801218388F31188DD
:10298000BFF36F8F002FC7D03D683946334652469C
:1029900020461DF092F92F46F4E7AB067FF51AAFFB
:1029A00025F02003238305F00705FFE6E7FC01007F
:1029B0002DE9F047DFF85880044607464FF001093B
:1029C00014B93846BDE8F08794FAA4F5B5FA85F550
:1029D00009FA05F32E0108EB05156FEA030A24EA4C
:1029E00003042B7B002BEBD058F806301B694BB946
:1029F0004644042273682846196807EA0A0700F06B
:102A00005DFADDE7284698470028D9D1F0E700BFF6
:102A10001C54020030B51049104889B0002222F041
:102A20006CF80F4D0F4900220023CDE90623002446
:102A30000E23CDE90334CDE901440B4B00944FF450
:102A4000407228461AF072FF0849284621F082FC9D
:102A5000204609B030BD00BF712A0000E00D002003
:102A600058090020C0640020612D0000E9760200B2
:102A700001481BF097BC00BFDC0600202DE9F047A1
:102A800080461F480F461DF00EFA0646002830D03B
:102A900000252846BDE8F087237B73B12368DB68F7
:102AA0000BB12046984723681B69D3B96368042299
:102AB0001968204600F002FA013610344C45EBD379
:102AC000B8F1000FE5D0002DE2D02846FFF770FFE7
:102AD0000546002FF7D000214FF4A4701BF092FAA6
:102AE000F1E7204698470028E0D00AFA06F31D4394
:102AF000E2E7044CDFF8109005464FF0010ADDE7ED
:102B0000E01600201C5402003C540200014B53F814
:102B1000200070477C55020008B5034608462BB1DB
:102B2000044A136000F096FC002008BD6FF0150009
:102B3000FBE700BFC001002010B5044C237813B997
:102B400003481BF02FFC0123237010BD1533002018
:102B5000DC06002010B5044608481DF0A4F95CB15D
:102B6000BFF35B8F064B53E8001F013943E80012A7
:102B7000002AF8D1BFF35B8F10BD00BFD81600202C
:102B8000DC1600200020064BBFF35B8F014653E8A4
:102B9000000F43E80012002AF9D1BFF35B8F7047A2
:102BA000D816002070B5FFF7EDFF084C084E05461B
:102BB000B44200D370BD63685B792BB123685B6856
:102BC00013B12946204698471034F1E71C540200FF
:102BD0003C54020010B5044C044920461CF0E7FEAA
:102BE000034B1C6010BD00BFE405002068550200C7
:102BF000D0160020084A094808B500231370084A77
:102C00001360084A4FF400411360FFF785FFBDE8E9
:102C10000840FFF7DFBF00BF16330020A3FE01000E
:102C2000D8160020DC1600200146002201480023AF
:102C30001CF0DEBEE405002001481CF077BF00BF99
:102C4000E4050020024B014618681CF0C1BF00BF1C
:102C5000D016002001481CF0F7BF00BFE40500209B
:102C600070B5284B187800284BD0FFF7E5FF0546D4
:102C700090B1BFF35B8F244B53E8001F013943E849
:102C80000012002AF8D1BFF35B8F204C204EB442D3
:102C90002DD32846FFF7D6FF1E4B1F4C1B68002B79
:102CA00019DD21F0E3FE4FF47A72A0FB020302FB70
:102CB0000131C30BD4E9002043EA41439B1A4FEA98
:102CC000D13140F2E93261EB0001934271F1000130
:102CD00001D3FFF767FFD4E9003213F57A7342F1AD
:102CE0000002C4E90032BDE87040FFF7B3BF63687B
:102CF0005B7923B1236829461B6820469847103426
:102D0000C5E770BD15330020DC1600201C540200FE
:102D10003C540200D8160020D80D002070B50D4D8F
:102D2000297861B90120FFF7A9FE0B4C0B4EB44284
:102D300006D3FFF795FF0028FBD101232B7070BD50
:102D400063685B791BB1236820469B689847103401
:102D5000EDE700BF163300201C5402003C54020073
:102D600000212DE9F0470846FFF788FE044658B3D6
:102D700040F267684FF0000922F0CCF81B4B1C4A68
:102D80001B58136033B11B4B1B68092B02DD1A481B
:102D90001BF008FB194FDFF860A0002544B1204666
:102DA000FFF706FE044618B94FF0FF384FF0FF3921
:102DB000FFF756FF064628B9B5B942464B4650467E
:102DC0001BF016FB3546E9E74FF0FF384FF0FF39AF
:102DD000D2E72B689B691BB1002211462846984711
:102DE0001035BD42F5D3E8E7054DFAE708000000CD
:102DF000D4160020DC160020DC0600203C54020023
:102E00001C54020013B518481DF04DF8174B1B78E1
:102E10007BB14FF02003EFF3118483F31288BFF3EB
:102E20006F8FFFF71DFF84F31188BFF36F8F02B020
:102E300010BD0F4B1B68002BF9D050B900220023A6
:102E4000CDE900230B484FF4004200231BF006FF9E
:102E5000EDE70928EBD1074821F05BFE064802B0F8
:102E6000BDE810401BF09EBADC160020163300208F
:102E7000D4160020E00D0020DC06002010B5064B23
:102E80001B68044698472146A06004481CF02EFEAB
:102E9000BDE81040FFF7B6BFC0010020E4050020E8
:102EA000044A054B9B1AB1EBD30F34BF52F83100E3
:102EB00000207047E45202001C540200084BC31A61
:102EC00010B41B1144680133237143689A7143683D
:102ED0001960436801225A7110BCFFF72DBE00BF74
:102EE0001C5402002DE9F04F8FB004AFC1F34A2803
:102EF000B8600D4691467B600C0DB8F1000F63D0B1
:102F0000002607F114034FF0040B4FF00A0AC7F82C
:102F10000C80C7E907667E620193CDF808B0CDF852
:102F200000A007F11C03F96832464846FFF732FA61
:102F3000B0F5006F03461CD36C468AB0D9F8041074
:102F400004AB2648C3E9050140F2FF71D9611A4676
:102F50004FF400711984224B42F8103F2148334648
:102F60004FF41251FFF7BEFFA5462C37BD46BDE812
:102F7000F08FC0F30A0804F11700184420F007008E
:102F800080083B60FFF750FE68F35325044690B17C
:102F90003B68154AC7E9083600F1100107F1140330
:102FA000F961CDE900A3CDF808B0F96807F11C0379
:102FB0004846FFF7EFF968F353257B68B9682A465E
:102FC00020461CF0A6FFD0E704F1170020F0070010
:102FD0008008FFF729FE0446EDE700BFFE760200F9
:102FE00004000001C4530200E7FE01002DE9F04F88
:102FF00087B0DDE91269DDE9105A04460F469346B1
:103000009846A6B31021CDF80090334652460020D2
:10301000CDF81490FEF7ECFF014605F117000844C7
:10302000144B039104F007040BF0070BE40020F0AD
:10303000070003EA412344EA8B1480081C43FFF78E
:10304000F3FD44EA0554054640B13EB10399CDF87D
:103050000090334652461030FEF7CAFF43462246E0
:103060003946284607B0BDE8F04F1CF052BF314644
:10307000D3E700BF00FE0F000EB403B503AB01465B
:1030800053F8042B0448019301F01CFA02B05DF8D8
:1030900004EB03B0704700BF25000200CA0605D448
:1030A0008B064CBF02490349FFF7E6BF704700BFDC
:1030B0003E7702003D7702002DE9F04F89B09B4634
:1030C000149B06939DF84CA0159B0593169B179E89
:1030D000049304460D469046BAF1000F00F09D801F
:1030E00006F4807307931CF0FCFE06F0020902460A
:1030F00000283ED091492046FFF7BEFF0746B9F1B0
:10310000000F08D016F0440F35D18D492A462046CD
:10311000FFF7B2FF074406F0010353B1894B8A4918
:1031200053F82A20894B2046002A08BF1A46FFF789
:10313000A3FF06F48073002B49D006F00803002B90
:1031400063D1B8F1000F66D0814942462046FFF7AF
:1031500093FF0546069B3D44002B6DD1049B002B3D
:1031600073D1F30700F1E48031462046FFF796FF64
:10317000D8E00746C3E7774B18680028CAD0764BDB
:103180004FF47A791B68B5FBF3F54FF46161B5FB39
:10319000F0F300FB135509FB05F54FF03C0CB3FBB6
:1031A000F1F201FB1231B5FBF0FEB1FBFCF300FBC9
:1031B0001E550CFB131109FB05F50091B5FBF0F54D
:1031C0006649CDE901E52046FFF756FFA2E706F084
:1031D0000803EBB1624B634953F82A202046FFF7FE
:1031E0004BFF0546B8F1000F05D05949424620462D
:1031F000FFF742FF0544BBF1000FABD05A495A46D6
:103200002046FFF739FF0544A4E74FF0000BE1E744
:1032100006F00805E6E745469CE7BBF1010F069B73
:1032200006D1002B64D1049B002B7BD000250CE041
:10323000002BF8D04D485CE04D48069B4D49224696
:103240001CF047FA049B002B68D0DFF82C81DFF8D4
:103250002C91049F3146102F204628BF1027FFF7DE
:103260001DFF4FF0000B5D4545DC059B49461A7874
:103270002046FFF701FF4FF0010B1BF0070F03D1B2
:1032800041462046FFF7F8FE5F453BD9059B49467E
:1032900013F80B202046FFF7EFFE0BF1010BBBF1FB
:1032A000100FEAD1364920464FF0000BFFF7E4FE3D
:1032B0005A46059B9A5CA2F120015F2928BF2E2265
:1032C00030492046FFF7D8FE0BF1010BBBF1100F80
:1032D0001DD01BF0070F03D141462046FFF7CCFE5F
:1032E0005F455A46E5D841462046FFF7C5FEEBE765
:1032F0001F485546A1E741462046FFF7BDFE0BF1AA
:10330000010BB0E720492046FFF7B6FEC5E7059B55
:103310003B440593049BDB1B04939AD1BAF1000F45
:103320007FF41FAF204609B0BDE8F04F1CF06DBE22
:10333000064A05492046FFF79FFE15E7457702003C
:10334000497702008C550200878302004077020013
:103350006E770200E8160020E41600205277020083
:10336000A055020072770200787702005B0002002D
:1033700025000200C5440000857702007D77020029
:103380008777020089770200837702002DE9F041F8
:103390000F884B688E6886B005460C469046C7F38A
:1033A00082175BB1144A9B1A43F3CF01002920DB3B
:1033B0002078C0F3C200FFF773FD03462146608802
:1033C00051F8102B0197C2F34A22002A01EB0204A4
:1033D000C0F30B1008BF00210022CDE90408CDE99D
:1033E0000214009231462846FFF766FE06B0BDE89B
:1033F000F0810023E2E700BFE452020073B542F21D
:103400000F738B4228BF0B4605680F4A04460521FF
:1034100068461BF007FD63680C495B6806460B2293
:1034200028461CF0E5FD63683246694628465B681D
:103430001CF0DEFD636806495B681B2228461CF011
:10344000D7FD02B070BD00BFA8740200A8770200CB
:103450008C770200074A00210123904206D8064AD1
:1034600001B901231360054B1860704740085B00E9
:103470000121F2E740420F00E4160020E816002088
:10348000014B01221A70704717330020014B0020B6
:103490001960704700170020024B034801221A7080
:1034A0001CF0B3BD18330020D05502000148FFF7CF
:1034B000A5BF00BFD055020010B5064B18680C46DA
:1034C000FFF724FB21460346BDE8104002480F22C7
:1034D000184700BF00170020D055020010B9074B55
:1034E00018707047064B1B781BB141F2883020F0F2
:1034F0006ABEA42000211AF085BD00BF173300204A
:10350000183300202DE9F843DFF874901D4F8046F2
:103510000E46042499F8005095B919F0D9FF2846B1
:103520003246414619F05AFF054619F0DBFFE5B176
:1035300001233B7099F8003073B93046BDE8F88339
:1035400032464146002019F049FF0546EFE7204684
:10355000FFF7C4FF651E2C46002019F0AFFF0028BE
:10356000EBD03B78002BF2D1E7E73B78002BE4D09F
:10357000013C2046FFF7B2FF3B78002BCAD1DCE7C5
:103580001833002017330020F8B5074F0D460446C6
:103590004618B44201D12846F8BD14F8011BBB6897
:1035A00001485B689847F4E748500200014B03600C
:1035B000002070471456020010B5084C86B02478DD
:1035C0008DF81740012402940DF117040194BDF801
:1035D000204000941FF09AFA06B010BDCB050020E1
:1035E00080B50C4A0C4B00AF88B0012908BF1346C8
:1035F0006A460A49C2E905134FF400739383084BE6
:1036000042F8103F074800234FF4E651FFF76AFCE9
:10361000BD4680BDF97402000175020020780200E9
:1036200003000001E4520200024B01221A70002044
:10363000704700BF2A3300201FB501240294044CB8
:103640000194BDF8184000941FF060FA04B010BD5A
:103650002A330020B0B5144A144B012900AF6C4640
:1036600088B006BF1346012500256A461049C2E905
:1036700005134FF4007393830E4B42F8103F002361
:103680000D484FF4E651FFF72DFC0C4BA5461C6886
:103690003CB154F8043C043C0BB12846984764689C
:1036A000F6E7BD46B0BD00BFF97402000175020027
:1036B0003978020003000001AC53020030170020EB
:1036C00060B100234360074B5968021D19B9C3E973
:1036D0000022002070470A605A60FAE76FF0150078
:1036E000704700BF30170020014B1868704700BFBB
:1036F00044020020F0B5082289B01CF0AFFECB6A6E
:1037000003930B6B04934B6B05938B6B0693CB6B03
:10371000079313466A460C46064600271146104694
:10372000CDE9017700971CF0ACFD314605463046E7
:103730001CF0A7FD216B0391616B0491A16B0591B6
:10374000E16B0544CDE90617104611461CF099FDC2
:103750003146054430461CF094FD0544206A009033
:10376000606A0190A06A0290A06B0690E06B0790DF
:103770003046CDE9047703971CF083FD0544606A69
:103780000090A06AD4F838C00190E06A0290CDF8A9
:1037900010C0606BD4F83CC00390CDE905C0206A2E
:1037A000079030461CF06DFD0544E06A0090206BE8
:1037B0000190606B0290206A0690A06A07903046E4
:1037C000CDE9047703971CF07CFE236B0093636BB9
:1037D0000193A36B0293E36B0393636A0693E36A1B
:1037E00007932D1A082330461CF06BFE636B009381
:1037F000A36B0193E36B0293236A0393636A0493BD
:10380000A36ACDE90537236B07932D1A08233046A9
:103810001CF057FEA36B0093E36BCDE90137636A9D
:103820000393A36A0493E36A0593636B07932D1ACA
:10383000082330461CF045FE2D1A10D40D4C35B926
:103840000822314620461CF015FE01280FD008231F
:103850002246314630461CF034FE2D1AEFE7054A69
:103860000823314630461CF00CFD2D18F8D409B061
:10387000F0BD00BF805702000449431E0F3013F80B
:10388000012F8A5C1A708342F9D170475278020086
:10389000F0B5264E07460C460FCE8DB001AD0FC5D4
:1038A0000FCE0FC596E8070085E807003846002FC1
:1038B00038D0002C38D0381F2146024610344B78BF
:1038C0000D781B0443EA0563CD782B438D780431D2
:1038D00043EA05238C4242F8043FF0D1144C042102
:1038E0008A07036916D1C3F30742A55C1A0EA25CCE
:1038F00042EA0562C3F30725DBB2655DE35C42EA99
:10390000054242EA032221F0030330336B4453F8AB
:103910002C3C534050F8042F013153402C290361B3
:10392000DED101200DB0F0BD2046FBE7545402006B
:10393000527802002DE9F047804600AF0C4600297E
:1039400036D0E9468AB0D1E90012A3686D461C481A
:103950002E464FF0050AC5E90501C5E9072346F8DB
:1039600010AF1848324600234FF42151FFF7BAFA3E
:10397000CD46D4E903126369AD461348C5F810A0DB
:10398000C5E90501C5E907230E48002332464FF477
:103990002151FFF7A7FACD46E3690C4A09480121F6
:1039A0001CF010FBA3690A4A064801211CF00AFB1F
:1039B0002146404619F0ACFDBD46BDE8F08700BF8A
:1039C00052790200F453020081790200B0790200BA
:1039D000BF79020030BFFFF7FDBF00BF2DE9F04106
:1039E0000B4EDFF8308006EB0807CC1B054632464D
:1039F0000949204621F070FAA01942460021083CEE
:103A000021F078FA6C6707F10800BDE8F08100BF8B
:103A100000000000040000003C540200044B9968C0
:103A20005869884203D003494FF080520A607047BA
:103A3000B432002004ED00E070B5294C06460D4676
:103A4000284829491DF06FFCA36AD9043CD52548B4
:103A500026491DF068FC1720A36A1A0504D52148E1
:103A600023491DF060FC18201D4CA36A9B0512D54C
:103A70001C4820491DF057FCA36BA26A100409D50D
:103A80001D4A184801211CF09DFA1EB1A36A23F4B7
:103A90000043A3621920124CA36A590504D51148AA
:103AA00016491DF040FC1A20A36ADA050ED50D4810
:103AB00013491DF038FC1B20094A936A43F47F43E5
:103AC000936200232B7070BD1620C5E7A36A9B0488
:103AD000F2D504480B491DF026FC1C20ECE700BF82
:103AE00000ED00E0F4530200ED790200037A0200D9
:103AF000147A0200277A0200407A0200557A020006
:103B0000707A0200887A020010B5204C20492148C2
:103B10001DF009FCA36A990136D51E481E491DF007
:103B200002FC1E20A36ADA0104D51A481B491DF0C5
:103B3000FAFB1F20154CA36A1B0304D5154818492E
:103B40001DF0F1FB2120A36A590304D51148154942
:103B50001DF0E9FB22200D4CA36A9A0304D50D4801
:103B600011491DF0E0FB2320A36ADB0304D50948BB
:103B70000E491DF0D8FB2420044A936A6FEA0343E0
:103B80006FEA1343936210BD1D20CBE700ED00E008
:103B9000B77A0200F4530200CF7A0200E27A020000
:103BA000FC7A02001A7B02003F7B0200597B020074
:103BB0002DE9F843364D8046894636483649174642
:103BC0001DF0B1FBAB6ADE0627D5344931481DF044
:103BD000AAFB1124AB6A1D0704D531492D481DF0FD
:103BE000A2FB12242A4DAB6A980718D52D49294803
:103BF0001DF099FB6E6BAB6A190646D52A4A25481B
:103C0000334601211CF0DEF9B9F1000F03D0AB6A95
:103C100023F08003AB62132403E01024DAE76FF093
:103C200015061B4DAB6ADA0704D5204919481DF06B
:103C30007AFB1424AB6A9B0604D51D4915481DF078
:103C400072FB1524124B9A6AD50602D49A6A900721
:103C50000AD55B68190507D54146304600F036FAAB
:103C600010B180F309880224094B9A6A920642BF78
:103C70005A6A22F400525A629A6A42F0FF029A6229
:103C800000233B702046BDE8F8836FF01506C2E7BD
:103C900000ED00E0F4530200847B02009A7B0200F6
:103CA000147A0200CD7B0200E57B0200FB7B020060
:103CB000887A02002DE9F041664B8AB0D3F804807F
:103CC00000AF0446C8F30805002686F31188BFF349
:103CD0006F8F02F07F43B3F17F4F07D102F00C03E7
:103CE000082B12D15C495D481DF01DFB00263446AF
:103CF0000023FB71EB1E092B00F28A80DFE803F042
:103D00000A80837D88888888888610074CBF0C4687
:103D10000126EDE7524951484E4D1DF004FB0023AA
:103D2000FB71EB6A9A0705D54E494C481DF0FBFA2A
:103D3000002333E0EB6A002B01DA4B49F5E7EB6A2D
:103D40005B00F5D5494945481DF0EDFA6B69A2695C
:103D500043F480736B61BFF34F8FBFF36F8F6B6959
:103D600032F8022C23F480736B61BFF34F8FBFF3E3
:103D70006F8F4DF602739A4209D0AB6ADBB27BB308
:103D8000FA1D01212046FFF713FF034606E02368D2
:103D9000374A324801211CF015F92368FA79DAB95B
:103DA00007F1080504F1200C206861682A4603C267
:103DB000083464451546F7D17A6A002E44D0C2F320
:103DC000080121B96FEA52226FEA42227A6207F1B2
:103DD00008011846FFF7AEFD2837BD46BDE8F08163
:103DE000AB6A13F47F4F04D0F91D0120FFF724FEC6
:103DF000CBE7AB6AB3F5803F9AD3FFF785FEC4E704
:103E0000FA1D0021BEE7F91D0020EFE719498CE7F4
:103E1000194A1A4B18F4F87FE8468AB018BF1346BF
:103E20006A461749C2E905134FF400731384103D25
:103E3000144BD56142F8103F084800234FF411514C
:103E4000FFF750F8C54673E722F4FF7222F0010233
:103E5000BCE700BF00ED00E0487C0200F453020024
:103E6000737C02008A7C0200AB7C0200B97C0200F9
:103E7000D87C0200F47C02002F7C02001A7C020035
:103E8000187D020004000001024A536943F0100348
:103E90005361704700ED00E0EFF30880EFF3098114
:103EA00001B57246FFF706FF01BD00BF00F04AFBF7
:103EB000202080F3118808484FF40461401880F3F3
:103EC0000988EFF314800221084380F31488BFF3BC
:103ED0006F8F00F0BBF80000C0770020084B9B6894
:103EE00083420BD1EFF3058343B1064B5A6842F08E
:103EF00080525A605A6A22F400425A6220F03CBB57
:103F0000B432002000ED00E0094A93686FF00A0126
:103F1000D967084998674B6843F080534B6000238A
:103F200083F31188BFF36F8F9368D86F704700BF1A
:103F3000B432002000ED00E015498A684FF03000EF
:103F40001044EFF3098C80E8F01F202080F31288E2
:103F5000BFF36F8F0F4F4FF000664A698A603E6073
:103F60004FF07404141920680B4C2060906F0023EC
:103F7000936780F3118804B5104600F025F9BDE879
:103F8000044002F1300090E8F01F8CF3098870477C
:103F9000B432002004ED00E0381700201EF0040FBA
:103FA0000CBFEFF30880EFF30980816911F8021C60
:103FB0000229FFD001B51DF0ABF901BD40B20028C8
:103FC00007DB044A4109012300F01F00834042F847
:103FD0002130704700E100E040B200280CDB4309CB
:103FE000064900F01F0020330122824041F82320BF
:103FF000BFF34F8FBFF36F8F704700BF00E100E04A
:10400000054B420900F01F0053F82220012303FA58
:1040100000F01040704700BF00E100E040B200280F
:10402000A8BF00F1604001F10101B8BF064B4FEAA3
:104030004111ACBF00F5614000F00F00C9B2B4BF40
:10404000195480F80013704714ED00E00F4A08B5CA
:104050000F4B22F07F029A60BFF34F8FBFF36F8F39
:10406000D3F8882022F47002C3F88820EFF3148379
:1040700023F0040383F31488BFF36F8F19F0FAFA67
:104080001AF020FC00F074F819F046FB0000000064
:1040900000ED00E042F8203C009B42F81C3C0A493D
:1040A000019B42F8183C029B42F8143C21F00101AC
:1040B0004FF0807342F8043C42F8081C0023203A79
:1040C00002658367704700BF61270000094A034605
:1040D000906870B113F1160F406E05D0A0F1400248
:1040E0009A4205D8834203D2814228BF00207047FC
:1040F00000207047B432002008B514460A4A0B4B22
:104100009060426F1A600D4600F05EF8204685F31D
:104110000988002163B681F31188BFF36F8F0022F5
:104120000023FEF71DFB00BFB4320020381700202B
:10413000014910220A60704710ED00E072B640405D
:1041400080F31188BFF36F8FBFF34F8F30BF62B61C
:10415000BFF36F8F704700BF72B6494081F311887B
:10416000BFF34F8F20BF80F3118862B6704700BF46
:10417000044800232021C2180133272B82F80013A2
:10418000F9D1704700E100E001B5EFF30580A0F13F
:1041900010004FEAC0000449014409C99847BDE82E
:1041A0000140024908470000D45002001D3A0000B7
:1041B000024B034A0348012100F08AB800000120A5
:1041C000000000202C580200426E054B403A1A6055
:1041D000044A4021C3E901121846012100F082B8C7
:1041E0003C17002000000B1508B503461048D0F816
:1041F0009020C2F30722013A934207D90D480E4A94
:1042000001211BF0DFFE6FF0150008BDC0F89830EB
:104210000A6822F01F021A4342F01002C0F89C20E4
:104220008A6842F00102C0F8A0201846EDE700BFFE
:1042300000ED00E0DC5302002F7D0200F0B50E46D9
:1042400085B01F4604460025B5420DDA606810B3FC
:1042500097B1431E18420AD0104A11482B4601213B
:104260001BF0B0FE6FF01502104605B0F0BD1F2820
:10427000F2D921680B42EFD1236801931DF05BF85E
:10428000A36801A90343D0B20393FFF7ADFF10F178
:10429000160FE7D0421C01350C34D5E7557D0200DE
:1042A000DC530200044B0522C3F89420BFF34F8F68
:1042B000BFF36F8F704700BF00ED00E0BFF35F8F6B
:1042C000024B0022C3F89420704700BF00ED00E0CD
:1042D00010B5034C01232278FFF7B0FF207010BD0A
:1042E0002B33002008B50B4A00231278FFF7A6FFF6
:1042F00010F1160F07D0084A0021D2F89030C3F30E
:104300000723984200DB08BDC2F89800C2F8A0104D
:104310000130F2E72B33002000ED00E0F0B5594802
:104320005949D0F890300D68C3F307239D4285B0FA
:1043300000F2A580FFF7C2FF49680022954201F113
:104340000C0117D1514C524F25706846FFF72EF9DA
:1043500000250646AE4220D123784A490020D1F8F4
:104360009020C2F307229342C0F28380FFF79AFFA6
:1043700000202DE0C0F8982051F80C3C23F01F03DA
:10438000134343F01003C0F89C3051F8043C43F051
:104390000103C0F8A0300132D0E7009800EB05110E
:1043A0004FEA051CCB683B40B3F5000F4FD011D846
:1043B000B3F5001F35D0B3F5800F3DD0B3F5801FA6
:1043C00017D0344A344801211BF0F3FD6FF015007B
:1043D00005B0F0BDB3F1807F42D0B3F1007FF0D1E2
:1043E00050F80C3088684A681CF0A5FF40F4802023
:1043F00009E050F80C3088684A681CF09CFF40F0D7
:10440000885040F43020039001A92078CDE90123A1
:10441000FFF7EAFE0028D9DB23780133237001354A
:1044200098E750F80C3088684A681CF084FF40F028
:10443000885040F40020E6E750F80C3088684A685D
:104440001CF079FF40F0E06040F40030DBE750F80A
:104450000C3088684A681CF06EFF40F08270D2E72A
:1044600050F80C3088684A681CF065FF40F088708E
:10447000C9E7C1F89830C1F8A00001336FE74FF0E9
:10448000FF30A5E700ED00E0385802002B33002094
:104490000000F0FF787D0200DC53020008B5024BFB
:1044A0001B689847002008BD48170020034B044AAA
:1044B0001860937843F00203937070474817002008
:1044C00048020020F0B587B007460E46144600218A
:1044D000102268461D4620F00DFD02238DF80230A3
:1044E0002A46054B019321466846CDE904761AF029
:1044F000C5FC07B0F0BD00BF5713020008B5064960
:10450000064821F00701C1F1005202F580321BF08C
:10451000A3F8002008BD00BF0BF500204C170020B9
:10452000024B0122C3F840250020704700E0014003
:1045300020B1034B800143F001031847704700BFCF
:104540000055020017F090BB08B504481FF040FE6C
:1045500000280CBF6FF01200002008BD20500200A0
:104560000E4B402970B528BF40210D4C46181D4602
:10457000B04203F1020304D1002305F811300748CB
:1045800070BD02781209A25C03F8022C10F8012B0E
:1045900002F00F02A25C03F8012CE9E74A33002085
:1045A000C77D020030B503788BB0044607AD032BFE
:1045B00021D8DFE803F0021A1C1E12492846FBF737
:1045C000F9FE059563780493A3780393E378029347
:1045D0002379019363790093A3790B4A0B481E2139
:1045E0001AF020FC09480BB030BD0949E6E709493B
:1045F000E4E70949E2E7094A0A2128461AF012FCD1
:10460000DFE700BF5A7502007C7502002C330020E2
:1046100061750200687502007275020065940200FF
:10462000F8B55F4EBFF35B8F3468BFF35B8F14F058
:10463000010455D05B4F5C4C5C4D5D483A462146C9
:104640001BF075FDD0BB5B4A5B4801211BF0B1FC40
:104650001F274FF0FF324FF0FF33012000F0CEF95B
:1046600000F10C050221044628461FF003F83E2302
:10467000037042234370012128461EF0FBFF0823EC
:104680000370412128461EF0F5FF054600F8017B26
:10469000EFB14022002120F02DFCBFF35B8F56E8E4
:1046A000003F23F0010346E80032002AF7D1BFF3B0
:1046B0005B8F2046BDE8F84001F030BA2022294641
:1046C000204620F096FB0028B7D00027C1E73849E4
:1046D0001CF0B8FE203105F121001CF0B3FEDCE730
:1046E000BFF35B8F3368BFF35B8F9B0756D52D49B4
:1046F0002F481CF0D8FB031E37DA304A2E48012120
:104700001BF060FC4FF0FF324FF0FF33012000F050
:1047100075F900F10C070221054638461EF0AAFF84
:104720003E23037022234370012138461EF0A2FF6E
:1047300009230370212138461EF09CFF03460130F7
:1047400034BB1F221A70FF21202220F0D3FBBFF3BD
:104750005B8F56E8003F23F0020346E80032002A50
:10476000F7D1BFF35B8F2846A4E70F49BFF35B8FF8
:1047700033680E48BFF35B8F13F0040F01F1200282
:10478000084B18BF014610461BF020FD0446B9E750
:10479000002207491A701CF055FED8E7F8BD00BF8B
:1047A0005817002058580200CB330020297E020001
:1047B000EB330020DF7D02005C530200087E020024
:1047C00070B5214CBFF35B8F2368BFF35B8FDA07B3
:1047D00006460D4601D50C2070BD012931D8BFF326
:1047E0005B8F54E8003F43F0020244E800210029B7
:1047F000F7D1BFF35B8F9B07EDD4144831461CF013
:1048000021FE134806F120011CF01CFEBFF35B8F54
:1048100075B154E8003F43F0040344E80032002A35
:10482000F7D1BFF35B8F0B4800F0A6F80020D3E769
:1048300054E8003F23F0040344E80032002AF0D09B
:10484000F6E71220C8E700BF58170020EB3300201E
:104850000B3400205802002070B5067E044676B95D
:10486000C3681D8842F22602954245D00FD842F215
:10487000010295424FD042F225039D4213D02A4BAC
:10488000D3F85C3120465B69BDE87040184742F2BE
:104890005E039D42F3D103210C301EF00AFFE06855
:1048A00090F840102EE003210C301EF002FF20464D
:1048B00015F058FBBFF35B8F1C4B1A68BFF35B8F7F
:1048C000920707D50C26314642F225001CF096FDD2
:1048D000002070BDBFF35B8F53E8002F42F0010151
:1048E00043E800100028F7D1BFF35B8FD307E9D46A
:1048F0000F4800F041F8E6E703210C301EF0D9FE26
:10490000E0683146FFF75CFF0646204615F02AFBBB
:1049100031462846DAE7DA7802F07F02DA701A794F
:1049200022F001021A71AAE70000002058170020A7
:104930005802002030B50A4D0A4B85B000242846A5
:104940000293039420F01FF802AB00932846064917
:104950000A234FF4A36219F019FF204605B030BDB9
:10496000180E0020547E0200006800200146014815
:1049700019F044BF180E0020014601481FF0D6BFB1
:10498000180E00200378012B30B513D0022B27D04E
:104990007BB9194B0A4603F1100453F8045B42F843
:1049A000045BA342F9D11B78137043884B731B0A35
:1049B0008B7330BD104B0A4603F1100453F8045BAF
:1049C00042F8045BA342F9D11B78137043684B7320
:1049D000C3F307221B0CCB731B0A8A730B74E8E723
:1049E00000F1100350F8042B41F8042B9842F9D140
:1049F00003780B70DDE700BF5D7E020038B5054629
:104A000005481EF0F9FD044620B100210C301EF0CF
:104A10002DFE2576204638BD00080020132810B54D
:104A20000CD10A481EF0E8FD044628B100210C30E4
:104A30001EF01CFE01232376204610BD09B1044858
:104A4000F0E7BDE810400120FFF7D8BF2C08002098
:104A50007C070020C368034A1B78034802211CF02E
:104A6000A7BD00BF767E02005453020070B5C66831
:104A70003378B6F801406BB90F21204602F030FEC2
:104A8000054640B9094B1A8822B96FEA04506FEA0B
:104A90001050188070BDF3780373012102F00AFDF5
:104AA0002846BDE8704002F0CDBC00BFEC320020CB
:104AB00070B5C3681D78BDB9B3F801600F213046E9
:104AC00002F00EFE044638B93346084A0848BDE8ED
:104AD000704001211CF06CBD294602F0EBFC204621
:104AE000BDE8704002F0AEBC70BD00BF9E7E02000B
:104AF0005453020010B5C368B3F8014001212046A9
:104B000002F0EEFD38B92346054A0648BDE81040DC
:104B100001211CF04DBDBDE8104002F093BC00BF68
:104B2000C47E02005453020010B5C3681C880121E2
:104B3000204602F0D5FD38B92346054A0548BDE8B0
:104B4000104001211CF034BDBDE8104002F07ABCD9
:104B5000C47E02005453020010B501210C301EF037
:104B6000B0FDBDE810400378024A034801211CF063
:104B70001FBD00BFE87E02005453020010B5084C70
:104B80000146052294F86F0002F046FF38B994F808
:104B90006F000449BDE81040042202F03DBF10BD83
:104BA00000000020AD7D0200024A034801211CF0F4
:104BB000FDBC00BF0A7F020054530200B0B50B4693
:104BC0000D8A00AF04462946D868FFF7C9FC8AB0B1
:104BD0006A46094BC2E9053440F202439384074B0D
:104BE000C2E907504FF4325142F8103F04481CF01C
:104BF000F0FCBD46B0BD00BF247F020005000001EF
:104C00005453020037B502EBC303934204D103B0FF
:104C1000BDE83040FFF7D2BF144614F8085B854268
:104C200011D10B8A54789C4207D9084A009001217F
:104C300007481BF0D1F903B030BD5368084603B0F4
:104C4000BDE8304018472246DFE700BF467F02003C
:104C50005453020010B5012104460C301EF031FD02
:104C60002146034A0078BDE810400A23FFF7CABF77
:104C7000C059020070B5C568B5F801600121304621
:104C800002F02EFD044638B933460D4A0D48BDE802
:104C9000704001211CF08CBC2B783BB9D5F8033057
:104CA000C0F8AD30D5F80730C0F8B130201D4FF452
:104CB00080511CF07FFC2046BDE8704002F0C2BB72
:104CC000C47E0200545302002DE9F74FDFF82CB1E7
:104CD000BFF35B8F8046894617464FF0000A5BE8BA
:104CE000004F4BE800A3002BF9D1BFF35B8F2646A2
:104CF00044B9434A43484346012103B0BDE8F04F5D
:104D00001CF056BC204615F091F83F4D0C2303FBD8
:104D100000504288424520D0204615F087F80C23E9
:104D200003FB00504388394A00933648434601212B
:104D30001BF052F9BFF35B8F5BE8003F4BE800626A
:104D4000002AF9D1BFF35B8F002B54D01E463046AA
:104D500003B0BDE8F04F15F005B9A7420FD02046CB
:104D60001EF045FC04F10C08012351464046237611
:104D70001EF07CFC3A8AF96840461EF081FC204611
:104D800015F054F80C2707FB00504368ABB1B9F19C
:104D9000000F12D1204615F049F807FB0050012101
:104DA0004268D2E90003127A03F01F07B9405B0999
:104DB000DAB100EB83001CF0FDFB204615F036F85D
:104DC0000C2707FB00508368002BC0D0204615F04D
:104DD0002DF8784305F80090204615F027F807FBDA
:104DE0000055A86819F0DEFAB1E7C94300EB83006B
:104DF0001CF0F2FBE1E703B0BDE8F08F40010020BA
:104E0000687F0200545302005C170020907F02006C
:104E100038B5042104460C301EF053FC034640888C
:104E20005D7818B119782246FFF74EFF25B1034887
:104E3000BDE8384019F0B6BA38BD00BF28010020DF
:104E40002DE9F84F484FDFF8248107F11409FB687A
:104E500048466FF39433FB6002F0AAFA451C4248BF
:104E60004FF0FF324FF0FF33294619F031FF60B1A8
:104E70003F49404840F6323342461AF091FC4040E8
:104E800080F311884FF0030002DF374EDFF8E8B0FF
:104E900015B919F035F8DAE7F368C3F38633022B56
:104EA00052D9042B5AD1337B002B50D133480022E6
:104EB00000231EF0A5FB044660B931492D4840F699
:104EC000C42342461AF06CFC404080F311884FF036
:104ED000030002DFDFF8ACA02B484FF0FF324FF0A9
:104EE000FF3319F085FADAF840215AB1274A2248EF
:104EF00001211CF05BFBDAF8400115F033F80022C9
:104F0000CAF8402120461EF07FFBCAF84001204627
:104F1000FFF7A2FC0346B8B11D4A174801211CF057
:104F200047FB194819F03EFA204614F07FFF194B51
:104F30000C2202FB0033588818B122461F21FFF7CC
:104F4000C3FE204615F00EF81436013DA0E7012BF4
:104F5000FAD13069383802F03DFEF5E70E4A0221F9
:104F600058461CF025FBEFE768020020C37F0200D3
:104F7000F77F020000800200545302004401002029
:104F80000296020000000020280100201D8002007F
:104F9000388002005C1700205A80020070B503219F
:104FA00004460C301EF08DFB0578B0F80100E36874
:104FB00040F6354290421B7806D1BDE87040084A61
:104FC000084802211CF0F4BA18B122461946FFF72E
:104FD0007BFE25B10448BDE8704019F0E3B970BD0F
:104FE0007B80020054530200280100202DE9F84F75
:104FF000D0F80C80018A98F80040012303EB840369
:105000008B4200AF7CD96D468AB06A463F48C2E900
:1050100007310523C2E905044FF4215142F8103F3E
:105020003B481CF0D6FAAD46BD46BDE8F88F394A7C
:1050300037485B4601211CF0BBFA013598F8003077
:105040009D42F1DA08EB85030F21B3F801B0B3F804
:105050000360584602F044FB04460028E7D000F104
:10506000280B16B34FF02003EFF3118283F312885D
:10507000BFF36F8FE3696BB1013BE36182F311888A
:10508000BFF36F8F204602F05FF8013E19F08AF9F6
:10509000B6B2E6E7636963B982F31188BFF36F8F35
:1050A0001B48524601211CF081FA204602F0CAF941
:1050B000C3E7A169186860618B4208BFA06182F3F1
:1050C0001188BFF36F8F4FF02002EFF3118182F34D
:1050D0001288BFF36F8FDA68E261C3F80C90C3F8EF
:1050E0000090626A4AB9C4E9083381F31188BFF3BA
:1050F0006F8F584619F044FBC4E713606362F4E70E
:105100000025DFF814A0A94698E700BFB18002008F
:1051100054530200DB800200F780020073B5C568BB
:10512000B5F801600121304602F0DAFA044640B9D0
:105130002B4A2C483346012102B0BDE870401CF0D8
:1051400037BA2B781A2B00F1040619D1C378012B3A
:105150002AD14FF4806130461CF02CFA42050FD45E
:10516000D4F8A03000936946D4F8A83001932046C3
:1051700002F00CFF204602B0BDE8704002F062B9B8
:105180002B788BB9B5F80330A4F89E30B5F805300C
:10519000A4F8A430B5F80730A4F8A6306FF48071F5
:1051A00030461CF019FA17E0BFF35B8F6368BFF35A
:1051B0005B8FDB05F2D52B78202BEFD194F8AC3048
:1051C000002BEBD0013B84F8AC304FF420320023AD
:1051D00004F1580019F03CFB204602F0DBFAC9E765
:1051E000C47E02005453020010B5C1E900239DF8AB
:1051F00008300B720C4614F019FE034B0C2202FB14
:1052000000335C6010BD00BF5C1700202DE9F04743
:105210004FF0FF324FF0FF3306461748174D0F4649
:105220001EF0EAF9044600F10C0A00214FF00008D4
:1052300050461EF01BFA84F81880204614F0F6FD44
:105240004FF00C0909FB00504680204614F0EEFD9B
:1052500009FB0050C0F80880204614F0E7FD09FB68
:10526000005503215046C5F804801EF003FA06805D
:1052700087702046BDE8F087D40700205C17002027
:1052800038B505460C4619B9FFF7C0FF0446C8B14A
:1052900040F635439D420FD12046FFF7DDFA054623
:1052A00040B10346094A0A4801211CF081F9204611
:1052B00014F058FE284638BD064821461EF0A2F9D3
:1052C0000025F7E76FF06805F4E700BF38800200BB
:1052D0005453020044010020F0B5C5682F88BCB2C9
:1052E00087B00121204602F0FBF9064640B9274A63
:1052F00027482346012107B0BDE8F0401CF058B90B
:1053000002ACD5F80220D5F80630019469890091E5
:105310001DF078FF40B3122142F21A00FFF776FF2A
:10532000054648B91B4A1A4801211CF03FF930468E
:1053300002F088F807B0F0BD12210C301EF09AF987
:105340000346224623F8027B06AF144603CCBC4238
:1053500018605960224603F10803F6D1294642F24B
:105360001A00FFF78DFFE2E7022142F21B00FFF770
:105370004DFF04460028D5D002210C301EF07AF9EA
:105380002146078042F21B00EBE700BFC47E02000B
:10539000545302000E81020073B5C368D9789A781D
:1053A0001E8842EA0122ADF8002059791A7942EAB2
:1053B0000122ADF80220D9799A7942EA0122ADF8AA
:1053C00004201A7A5B7AB4B242EA03230121204610
:1053D000ADF8063002F084F9054658B91C481D4A5C
:1053E000012123461CF0E4F8022120461CF010F9AC
:1053F00002B070BD694602F011FA38B91E2120468C
:105400001CF006F9284602F01DF8F1E70E2142F2E1
:105410002000FFF7FBFE04460028F3D00E210C30DD
:105420001EF028F900230680C0F80A30BDF80030CD
:105430004380BDF802308380BDF80430C380BDF8DE
:1054400006300381214642F22000FFF719FFD9E719
:1054500054530200C47E02002DE9F041074688B093
:1054600016460C4621B9FFF7D1FE0446002852D05B
:1054700002AD0122002128461FF0A7F9204614F0B2
:10548000D5FCDFF8A0800C2303FB0080856020465C
:105490001EF0BAF8014624481EF0B4F84FF4A022DA
:1054A0002846002318F0A4FF054688B140F24B13AC
:1054B0001E4A1F491F481AF073F91F482A463946E9
:1054C0001AF06EF9404080F311884FF0030002DFBC
:1054D000204614F0ABFC0C23584318F8005095B14B
:1054E000164A174800953B460221093D1AF074FD03
:1054F000EDB2204614F036FD092D0FD8114B585748
:1055000008B0BDE8F08116B134600020F8E720460D
:1055100014F028FDF9E76FF06800F1E76FF0040080
:10552000EEE700BF5C17002044010020C37F0200AB
:10553000F77F0200008002002581020051810200F5
:10554000545302007C85020073B506460D4601AA3D
:10555000002142F22F00FFF77FFF044638B1094ACD
:10556000094801211CF022F8204602B070BD0198C4
:10557000C368B3F801203280B3F803302B8014F0F5
:10558000F1FCF1E76D81020054530200F7B5144BB2
:1055900093F99B30002B05460C461DDA14B92046C2
:1055A00003B0F0BD082C01AA4FF0000142F2180030
:1055B000264628BF0826FFF74FFF0028F0D1019F9D
:1055C000F9683246013128461FF086FC384614F04F
:1055D000C9FC3544A41BE1E76FF08500E0E700BF9C
:1055E000000000202DE9F04F89B0A34BB0F80180F6
:1055F0001988054648F4704291424FF0000902AF05
:1056000004BFA3F800904FF0010900F0FBFD2C78D7
:105610002CB33C2C1CD101F0F1F86FF0800110305C
:105620001BF0DAFF0020FFF7A9FA054640B9934ABC
:10563000934801211BF0BAFF1C37BD46BDE8F08F2F
:105640000473002101F036FF284601F0FBFEF3E76A
:105650008C4A8B48234602211BF0AAFFECE7EB782B
:10566000012B08BF884B05F10406304608BF93F8AC
:105670006F401BF06CFF314650B307F110001BF078
:105680005BFFD5F81130C7F80930B5F81530A7F829
:105690000D304FF0010AEB78012B2CD03046FEF78D
:1056A00081FF6C4688B002AA784BC2E905304FF4FE
:1056B00000739383764B42F8103F71484FF4E251E8
:1056C0001BF087FF1321A54640461BF0BCFFB3E744
:1056D00020461CF042F90346006838619A889B799D
:1056E0006868BA82BB75B288B37995F804A0B860CF
:1056F000BA81BB73CFE707F11000FFF73FFAEB78F1
:10570000012B04460AD101F079F86FF0800183463D
:1057100010301BF061FF58461CF047FA002CBDD03A
:105720002346B5F8012023F8882B3869BA7DB98A59
:10573000C4F888009A719980B5F81730A4F89E30A3
:10574000B5F81930A4F8A430B5F81B30A4F8A63089
:10575000EB78E3700022012B227320D187F808A098
:10576000BA89BB7BB868A4F8932084F89530C4F854
:105770008F0001F043F8237A434AC3EBC30399181F
:10578000D358C4F896308B88A4F89A308B7984F873
:105790009C30D2F8E4305D0601D501F0EFF9072125
:1057A000204601F087FEB9F1000F03D00121204609
:1057B00001F080FE20461CF08FFA637B072B55D149
:1057C000BFF35B8F6368304EBFF35B8F13F4805F72
:1057D00020D1E3781BB196F8D83018071AD50221EA
:1057E00042F21600FFF712FD0546002840D00221C4
:1057F0000C301DF03FFF238803800022294642F22F
:105800001600FFF729FE034620B1224A1C48012159
:105810001BF0CEFE96F8D930D9070DD50223002112
:105820001A46009120461BF047FF034620B11A4A52
:10583000134801211BF0BCFE96F8D8309A0615D506
:10584000D6F85C319B689B0710D5B91D381DFFF752
:105850007BFE58B9FA88B98820461BF00FFF034633
:1058600020B10E4A064801211BF0A2FE2046ECE6BC
:105870006FF06803C9E700BFEC3200208D810200A1
:1058800054530200AE81020000000020C7810200D4
:1058900003000001E3810200048202001B82020077
:1058A00000B5C36889B01A788DF80020B3F80120DC
:1058B000ADF80120DA788DF80320B3F80B20ADF8AD
:1058C0001720B3F80D20ADF81920B3F80F20ADF86C
:1058D0001B205A7C8DF81D20586801901A899B7AEC
:1058E0008DF80A30094BADF8082068461A689B8885
:1058F000CDF80B20ADF80F30CDF81120ADF81530F4
:10590000FFF770FE09B05DF804FB00BFC17D020027
:1059100029289ABF014B185C092070475285020064
:1059200070B5C368B3F801601D780F21304601F0EF
:10593000D7FE044638B93346184A1948BDE87040C6
:1059400001211BF035BE65B12846FFF7E1FF29466E
:105950000246204601F0CAFF2046BDE8704001F033
:1059600071BD8678012EEFD105F09AFE20461BF01E
:1059700004FE0028E8D10520FFF7CAFF05210246F2
:10598000204601F0B3FF3146064A05481BF00EFEE3
:10599000052120461CF0A9F9DEE700BF9E7E02002B
:1059A00054530200378202002DE9F041C668B6F870
:1059B000017035780F21384601F092FE044638B95F
:1059C0003B461D4A1D48BDE8F04101211BF0F0BDDA
:1059D00065B12846FFF79CFF29460246204601F0A4
:1059E00085FF2046BDE8F04101F02CBD8278F378B8
:1059F000C372012A05D00020FFF78AFF002102466A
:105A0000ECE70BB105F04CFE20461BF0B6FD00287C
:105A1000F1D10520FFF77CFF05210246204601F069
:105A200065FF074A054801211BF0C0FD05212046FE
:105A30001CF05BF9D5E700BF9E7E020054530200C4
:105A40003782020070B50C4D06460FCD8EB06C4605
:105A50000FC40FCD0FC40FCD0FC495E803000D2E5A
:105A600084E803009BBF0EAB03EB8606034856F8A1
:105A7000380C0EB070BD00BF805402005D82020081
:105A80002DE9F041044600F10C0630461DF029FED8
:105A9000B4F81080B8F1010F05460AD8194A1A481F
:105AA000434601211BF084FD2046BDE8F04114F07F
:105AB00059BA304602211DF004FE074600781BF05B
:105AC0004AFDC20706460CD4104A1149114840F657
:105AD000EE6319F065FE404080F311884FF003003B
