:100000000055002089460000EF0A020075460000F6
:1000100075460000754600007546000000000000AF
:100020000000000000000000000000007947000010
:1000300075460000000000001547000075460000EE
:1000400065490000B1830100654900006549000071
:1000500065490000654900006549000065490000E8
:1000600065490000654900006549000065490000D8
:1000700065490000654900006549000065490000C8
:1000800065490000654900006549000065490000B8
:1000900065490000654900006549000065490000A8
:1000A0006549000065490000654900006549000098
:1000B0006549000065490000654900006549000088
:1000C0006549000065490000654900006549000078
:1000D0006549000065490000654900006549000068
:1000E0006549000065490000654900006549000058
:1000F0006549000065490000654900006549000048
:1001000053B94AB9002908BF00281CBF4FF0FF317E
:100110004FF0FF3000F00CB8ADF1080C6DE904CEE3
:1001200000F008F8DDF804E0DDE9022304B07047D0
:10013000704700BF2DE9F04786468C460846089E6A
:10014000154674461946002B40F0C2808542B2FA2B
:1001500082F245D94AB1C2F1200300FA02FC2EFA1C
:1001600003F3954043EA0C0C94404FEA154EA8B2B5
:10017000BCFBFEF8230C0EFB18CC08FB00F943EA8D
:100180000C43994528D9EB1808F1FF3704D299455B
:1001900002D9A8F102072B44A3EB0903A4B2B3FBD5
:1001A000FEFC0EFB1C330CFB00F044EA0344A042AF
:1001B00014D92C190CF1FF3304D2A04202D9ACF1AE
:1001C00002032C44241A43EA07401EB1D440002302
:1001D00034607360BDE8F0874746DDE76346F1E7CA
:1001E00092BB431B01214FEA154EAFB2B3FBFEFC9D
:1001F000200C0EFB1C330CFB07F840EA0343984528
:1002000062D9EB180CF1FF3004D2984502D9ACF159
:1002100002002B44A3EB0803A4B2B3FBFEFC0EFBCD
:100220001C330CFB07F744EA0344A7424ED92C19B0
:100230000CF1FF3304D2A74202D9ACF102032C44E3
:10024000E41B43EA0040C0E7C2F1200320FA03F1B7
:10025000954090402EFA03F303434FEA154EAFB298
:10026000B1FBFEFC0EFB1C10190C0CFB07F841EA5D
:100270000041884504FA02F422D969180CF1FF30D4
:1002800004D2884502D9ACF102002944A1EB08014F
:100290009BB2B1FBFEFC0EFB1C110CFB07F743EA03
:1002A00001439F420ED9EB180CF1FF3104D29F425B
:1002B00002D9ACF102012B44DB1B41EA004192E779
:1002C0006046E3E76146F7E76046A3E76346B7E7C2
:1002D000834206D916B9002108467BE7C6E900E04B
:1002E000F9E7B3FA83F78FB9834201D3724508D88F
:1002F000BEEB020460EB030301209C461EB9002103
:1003000068E73846FAE7C6E9004CF8E7C7F1200C81
:10031000BB4022FA0CF41C432EFA0CF120FA0CF329
:10032000B84001434FEA14490EFA07F5B3FBF9F858
:100330001FFA84FE09FB18300B0C08FB0EFA43EA87
:1003400000439A4502FA07F240D9E31808F1FF305A
:1003500004D29A4502D9A8F102002344A3EB0A0370
:1003600089B2B3FBF9F809FB183308FB0EFE41EA2A
:1003700003418E452CD9611808F1FF3304D28E4514
:1003800002D9A8F10203214443EA0040A0FB0298ED
:10039000A1EB0E014145CE46434602D306D14D4561
:1003A00004D2B9EB020E68EB04030138002EA6D08C
:1003B000B5EB0E0261EB030101FA0CFC22FA07F324
:1003C0004CEA0303F940C6E9003198E74046C5E727
:1003D0004346D9E710F8012B11F8013B012A28BF49
:1003E0009A42F7D0D01A7047034611F8012B03F850
:1003F000012B002AF9D17047034613F8012B002A7C
:10040000FBD1181A013870472DE9F041454D82B0F3
:10041000D5F85C31996811F0010100AF24D13A1D83
:1004200040F6034005F02EFC0446002875D17C6898
:10043000E3681B78ABB906F0C9FDBFF35B8FD5F855
:10044000D430BFF35B8F05F1D40203F00903BFF38F
:100450005B8F52E8001F42E800300028F9D1BFF35B
:100460005B8F20461AF0EAFC3A1D002141F203009E
:1004700005F008FC044600284FD17B682A4EDA6854
:10048000D2F80100D2F8051003C618461AF0D6FCBF
:1004900021463A1D41F2010005F0F4FB0446002814
:1004A0003BD17868C3685A7885F870205A88A5F8D7
:1004B00072201A7985F87120B3F80720A5F8742006
:1004C000B3F80530A5F876301AF0B8FC21463A1D8D
:1004D00041F2020005F0D6FB0446F0B9D7F80480DB
:1004E000D8F80C20531C413218685968344603C4AC
:1004F000083393422646F7D10C4820F098FB40463B
:100500001AF09CFC95F87C305A0615D4084A094824
:10051000012120F036FC6FF0120420460837BD465A
:10052000BDE8F0810000002078000020800000205D
:1005300046740200CC4802003A1D002142F203003A
:1005400005F0A0FB04460028E7D17B68A24EDA68DC
:10055000D2F80100D2F8051003C618461AF06EFC56
:1005600021463A1D42F2020005F08CFB04460028A9
:10057000D3D17C68E368B3F8012091B249B1D9784E
:1005800039B1A5F80421DA78114606F1280023F0E4
:1005900053FC20461AF052FC95F87C6016F02006B9
:1005A00018D1022140F66D4005F046FA04460028B5
:1005B00000F0C98002210C3022F0EFFE012303700D
:1005C00046702146324640F66D4005F05BFB04461E
:1005D0000028A2D195F89C301B0712D53A1D0021A6
:1005E00042F21C0005F04EFB0446002895D17868C5
:1005F000C368D3F80120D3F80530C5E938231AF0D1
:100600001DFC95F8D8309E0621D5B91C384605F05A
:10061000B1FB0446002880D1042142F2240005F0F9
:100620000BFA0646002800F08E8004210C3022F0E0
:10063000B4FE3B8803807B8843802246314642F2E9
:10064000240005F01FFB044600287FF466AF95F8F0
:10065000D8305C0610D53A1D002142F22A0005F080
:1006600011FB044600287FF458AF7868C3685B78B4
:1006700085F820311AF0E2FB082142F2010005F072
:10068000DBF9044600285ED008210C3022F085FEFC
:1006900095F8D81011F0400F024640F2022308BF2F
:1006A000032388074CBF43F02C0043F00C008B065B
:1006B00095F8D93048BF40F0400013F0090F95F885
:1006C000A23018BF40F4006003F00603CE0748BF15
:1006D00040F01000062B08BF40F4C070002120F04D
:1006E00079FB2146002242F2010005F0CBFA0446D4
:1006F00000287FF412AF95F87C30B5F80411980605
:1007000024D4C9B93A1D41F2050005F0BBFA0446EC
:1007100000287FF402AFB5F804317C684BB9E36878
:10072000B3F80120A5F804219A882C48114623F03B
:1007300083FB20461AF082FB082140F6014005F0B9
:100740007BF9044660B96FF06804E6E60029F3D14E
:10075000234A2448012120F014FB6FF00404DCE656
:1007600008210C3022F019FE95F8D830D90702463E
:1007700029D41D484FF0005120F02CFB21460022C7
:1007800040F6014005F07EFA044600287FF4C5AE2D
:1007900001463A1D4FF6014005F074FA40B3134A82
:1007A0001048022120F0EDFA06F062FB0446002812
:1007B0007FF4B3AE07F01CFF044600287FF4ADAE13
:1007C00005F0D2FEA9E602A1D1E90001D4E700BFFD
:1007D0009088000200800020D8000020080100203E
:1007E0006A740200CC480200108800028D74020076
:1007F0007B68DC68B4F80130032B96BF434A444958
:1008000052F823106D468AB06A464248D3614FF4CD
:1008100000731384404BC2E9050142F8103F3F4882
:100820004FF4135120F0C7FAB4F80120B4F80330A4
:10083000022AAD4648D1032B46D8394A52F8231034
:100840006D468AB06A463748D3614FF4007313840B
:10085000314BC2E9050142F8103F4FF413512F48C4
:1008600020F0A9FA6379A679D4F80900032BAD46E4
:1008700098BF2D4AB4F8075094BF52F8231024496A
:100880006C468CB06A46DFF8A4C0C2E907364FF464
:1008900000739385264BC2E905C1C2E909504FF4A4
:1008A000735142F8103F1D4820F085FAA54678683C
:1008B0001AF0C4FA3A1D00214FF6024005F0E2F9A1
:1008C000044618B11B4A6BE71149B9E778681A4D1D
:1008D000C368B3F80130A5F8C1301AF0AFFA95F843
:1008E000C1305B077FF560AF3A1D21464FF60340EC
:1008F00005F0C8F908B1114A52E77868C3685B7817
:1009000085F8C0301AF09AFA4EE700BFE04C0200BA
:10091000B4720200B174020004000001CC4802006D
:10092000D04C0200CA740200C04C0200E274020003
:10093000070000010F75020000000020387502005A
:1009400038B5194C9DF810E094F848C01CF001052A
:1009500023D163F3420C400194F83230A1874FEA6F
:10096000CE0E0EF0180E00F0200040EA0E0023F02C
:10097000380303430D4884F832309121A2FB000371
:1009800084F848C001FB023105A3D3E90023FFF737
:10099000B7FBC4E91000284638BD0C25284638BDF1
:1009A0008D49FD1A0700000060100020002AE7842E
:1009B00010B504469DF8080022844FEA411CC0008F
:1009C000A17D00F018000CF0200C4CEA000C0C4843
:1009D00021F038014CEA010CA3FB0002912184F8BC
:1009E00016C001FB032104A3D3E90023FFF788FB12
:1009F000606210BDAFF300808D49FD1A0700000052
:100A0000002AE784000000002DE9F047044600F1C9
:100A1000350190F8480094F83230534DC0F340004F
:100A200060F386138CB084F832300DF0C7FF94F871
:100A30003220A38F4D48E46102F07902002784F848
:100A400032209121A3FB0002C4E90577277001FB46
:100A5000032143A3D3E90023FFF752FB3123626C48
:100A6000A360651B424B6760AD08A3FB053502F12F
:100A7000090398428EBF19463A460146E760226450
:100A8000216106460DF04CFF236AC5F3470500F1CE
:100A90000907002B47D00DF12C08CDF820800694D3
:100AA000A38F32484FF0000AA3FB0002CDF80CA040
:100AB000912101FB0321236904932E4B07932E4BB5
:100AC00005934FF0020926A3D3E90023CDF82C901B
:100AD000FFF716FB104619464FF47A720023FFF712
:100AE0000FFB0235EDB22A46CDE901603B460321FA
:100AF000CDF800A050460DF0BBFD41460EF0C0FD04
:100B0000054660B994F8483043F00103484684F83C
:100B1000483017F073F828460CB0BDE8F0870C2079
:100B20000CB0BDE8F0870DF12C08CDE90A3321693E
:100B300043460AAA032000F02FFE0028ADD10B99EE
:100B40000E4807A3D3E90023A1FB0001FFF7D8FA61
:100B50000A9B20F07F471F449FE700BFAFF3008050
:100B60008D49FD1A0700000060100020002AE7846C
:100B7000BD86F21A79EA00007D15010000CA9A3B91
:100B80002DE9F041C469228D4FF6FF739A428AB075
:100B900059D00646204613F0B3FB96F82630012BB9
:100BA00000F0FC80022B00F0EF80002B00F0CF80E3
:100BB00094F83871002F40F0EA80E58DB4F8308069
:100BC000002D43D1738C08F10105ADB2002B42D04A
:100BD0000023A4F8663196F82430DA0740F1E48067
:100BE0000023A4F86A310DF127022946204613F0AC
:100BF00029F9743022D0B4F864312BB1AB4240F201
:100C0000F2805B1BA4F86431B4F860312BB1AB42C5
:100C100040F2F8805B1BA4F8603194F8B930258E5F
:100C200003F00101002F38D1A84560D00135ADB2E5
:100C300000295FD13DB13946384632E09DF8271092
:100C4000204611F0CBFA0AB0BDE8F081738C454420
:100C5000ADB2002BBCD196F82430DB07C0D4B4F879
:100C60006631002B00F0A080AB4240F2E3805B1BBA
:100C7000A4F86631B4F86A31002BB4D09D4280F0FC
:100C8000CD805B1B9BB2062B4FF00002A4F86A31AB
:100C900022868CBF00270127A5E70135ADB249BBED
:100CA0000020228DE46903950023694D04970332E7
:100CB000CDE9011006940093D2B2012118460595A2
:100CC0000DF0F2FC10F0FD0FBDD00EF0EBFC8442F5
:100CD000B9D0604A604961484FF4A3631EF067F9D8
:100CE000404080F311884FF0030002DFABE700299A
:100CF000A9D03D4694F8B93094F939206FF3000338
:100D0000002A84F8B93066DB94F85C00C0F3C001B7
:100D100000F0070017F058FFB4F85420B4F8523030
:100D2000134403F2D51303444D4A4E480721E3FB15
:100D30000021104644A3D3E90023FFF7E1F921691C
:100D400020F07F40814264D2411A2061A8E794F8E4
:100D5000763003F01803182B7FF42AAFA18DB4F876
:100D600062218B1D9A42C4BF931F5B1AB4F85E11B7
:100D7000CCBF9BB21346994256D0A4F85E31A4F87A
:100D80006031A4F8642113E73D2784F838713946AF
:100D900020460AB0BDE8F04111F020BA0023A4F8C3
:100DA0006431A4F8603103E7B4F86A31002B7FF4B2
:100DB00065AF628DB4F8683140F2E24101FB02F2A6
:100DC00042F2107101FB0323013BB3FBF2F39BB230
:100DD000A4F86A3150E794F85D00012100F00700A3
:100DE00017F0F4FE98E70EF009FC0146C0B10023AD
:100DF000A4F86431238DC3801B23037100680EF0B7
:100E0000CFFB01E70023A4F86031204613F0A0F8DF
:100E100003E72061081A0FD0002142E70821B7E755
:100E20000123A4F86431EFE6B4F8641100297FF4DB
:100E3000BFAEA4E73E21ABE7002DEDD1002FEBD1F3
:100E400001E700BFAFF300808D49FD1A07000000E5
:100E5000C11A0100F05502001457020000510200AF
:100E60008C49FD1A00CA9A3B2DE9F04F8FB0458E90
:100E7000BDF864200D930378BDF86070BDF86C6018
:100E8000B0F82E90B0F8FCB0CDE90A12BDF8682099
:100E90000C920446002B00F0E780013DADB2A36840
:100EA000D4F8F480AA1B002B92B20ADAE0686168D9
:100EB00023F0004388422CBF80448844A360A8EB01
:100EC0000308638D13FB02F39BB2B3FBF7F217FB2E
:100ED00002F080B283421FFA82FA80F0B380C01A17
:100EE00040F2E242704902FB00F0A0FB01016CA35A
:100EF000D3E90023FFF704F920F07F408044D94470
:100F000094F839304E44761BB24440F2E245DB0996
:100F1000A4F82EA007FB05F540F0AA800D9B6248BF
:100F2000A3FB00015EA3D3E90023FFF7E9F820F05B
:100F30007F4601360B9BA3850C9BA4F8683129469C
:100F40002046678512F0BAFF584BA18D2B44881DAF
:100F5000B3FBF5F39AB29042A4F8622102D2521A7E
:100F6000063A92B20A9BA4F85E2113B10023A4F8BA
:100F70006A310221012019F0E7FC0022022181469A
:100F800001200CF001FA4A494FF4BC7220460CF0E3
:100F90008BF9C71CFFB2474B00943A460121002051
:100FA0000DF0D4FB10F0FD0F0CD0434A43494448E8
:100FB00040F632031DF0FBFF404080F311884FF0F4
:100FC000030002DF384836A3D3E90023A5FB000164
:100FD000FFF796F808940694194623690493394B51
:100FE0000793394B05934FF6FE730546039310465E
:100FF00000234FF47A72FFF783F80096CDE9015091
:1010000043463A46012100200DF032FB10F0FD0F5F
:101010000CD0294A29492A4840F647031DF0C7FF4A
:10102000404080F311884FF0030002DFB9F1000F58
:101030002DD194F85C3143F0010384F85C310FB09A
:10104000BDE8F08F07FB1231174840F2E24389B246
:1010500003FB01F1A1FB000111A3D3E90023FFF77A
:101060004FF8A8EB00084AE74D445D44ADB216E7DF
:10107000114A1649124840F6BD031DF098FF404042
:1010800080F311884FF0030002DF002652E70122AF
:10109000022110460CF078F9CBE700BFAFF30080D7
:1010A0008D49FD1A0700000000CA9A3B7FC3C901A1
:1010B000B0100020591B0100F0550200E456020058
:1010C00000510200011B0100816E010080510200ED
:1010D0002DE9F04F8BB0CDE9040103930020BDF85A
:1010E00058309DF85480BDF85CB0BDF860A0069300
:1010F000164610F051FB002800F0438108F001096A
:10110000044648460DF04AFCB9F1000F6AD1236A43
:1011100004F11C020792002B6BD0276A3D6897F8F8
:101120004000C0F3C00100F0070017F04DFD398FFB
:10113000FA8E00F2D5130A441344C948C94A07215C
:10114000E3FB00211046C4A3D3E90023FEF7D8FF38
:1011500020F07F402861304616F06EFD94F8333061
:101160006FF3410384F83330FF2384F834306EB3D7
:10117000A8F10203012B40F2088194F84810039D66
:1011800068F3420184F8481094F8331065F30001C5
:10119000DDE9042384F83310149909686162149915
:1011A00089882185A4F830A004F11C000096002154
:1011B000FFF7FEFB606417F0A1FE002840F0F0800E
:1011C0002046FFF721FC0BB0BDE8F08F17F0E0F8E8
:1011D0000028CDD014990398324616F029FE84F8E1
:1011E0003400C5E706210CF073F800288FD11220D7
:1011F000E9E70EF0BDF90790002800F00B8110F030
:10120000D7FC0546002800F0028120300CF01CFAC3
:1012100005F11C07002840F0ED80032105F12400B2
:1012200017F098FB069B286F6B854FF6FF73A5F8A8
:101230002CB02B85002800F0EF8005F1640205F149
:1012400060010CF051F8B5F85C3023F4EF6323F043
:10125000070343F4887343F00103A5F85C3095F865
:1012600076304FF0000B23F0070385F8763001212C
:10127000C5F870B0A5F874B0284611F0DFFAC5F8CB
:101280002EB0A5F832B005F1340015F08DFF95F8B9
:10129000393060F30503012185F839300DF127005D
:1012A00017F058FB9DF827206F4B85F83BB0A3FB48
:1012B0000213DB0803EB4303A2EB830295F83930FA
:1012C000A98DA5F86AB103F03F0385F8393095F888
:1012D0003C30A5F860B1053223F0030385F83A20CD
:1012E000069A85F83C3040F2E24B604BA5F868A1C5
:1012F0000BFB02FB4FF4C0225B44C5F86421881D40
:10130000B3FBFBF39AB28242A5F8622102DD063AF2
:10131000521A92B2A5F85E21284612F057FD59469E
:10132000284612F0CBFD4FF0000B079BC5F83C316F
:1013300085F838B110F072FE95F8703160F3020351
:1013400085F8703110F070FE95F8703160F3C503C8
:1013500085F8703195F85C316BF3410385F85C31A9
:1013600005F1BC0012F0F2FA3123C5F804B0C5F85B
:101370000CB0AB602762C5E905BB85F800B0ED6134
:10138000CDE60C200BB0BDE8F08F002016F06EFC0F
:1013900094F8333043F00203C84684F83330ECE667
:1013A000256A6B6D63B1324A3249334840F21D43BE
:1013B0001DF0FDFD404080F311884FF0030002DF77
:1013C00005F1480105F144000BF092FF06460028A4
:1013D00034D02F686E65D7F83C510DB328460EF017
:1013E000CDF8384610F0EAFB0023032023620BB04F
:1013F000BDE8F08F1E4A21491F48C1231DF0D7FDCB
:10140000404080F311884FF0030002DF05E70798A2
:101410000EF0B4F80720D6E605F1680028670CE75F
:10142000134A1749144840F226431DF0C0FD4040BE
:1014300080F311884FF0030002DFCFE70C4A104918
:101440000D4840F21F431DF0B2FD404080F311886B
:101450004FF0030002DFBCE78D49FD1A07000000D2
:1014600000CA9A3B8C49FD1AABAAAAAA7FC3C9013C
:10147000B05B0200F45B0200005102005C5102000C
:1014800040560200000000002DE9F04F04468DB0E8
:1014900090F81C80238D406AADF82C30E307C8F328
:1014A000C0170E461546C8F340180A9000F10D818A
:1014B0000023A383B37C707C13F001031CBFD4F81A
:1014C0001E30C4F82B3004F12B0214BF638CC4F817
:1014D0002B30FF28938004F1250904F11F0200F04E
:1014E000E78004F11E0116F0B7F8A37FBDF82C20A9
:1014F0000A98C4F825000233A377A9F804203368BA
:10150000D3F80090EB8963862B8AA386B9F8303034
:10151000E38617F043FD84F838002F68384610F052
:1015200053FB0021A881E080384612F0DBFCD6F89E
:1015300004A0206821460EF027F8AB89AAF80630EF
:101540001C23DAF800408AF80430B8F1000F40F0AC
:10155000CA808AF81C80514620460EF021F8BB68EC
:101560007A6895F84000B5F80E80F568664C9342AD
:1015700038BF1346C0F3C00103F1090A00F00700A9
:1015800040F2E24303FB08F817F01EFB00220221A1
:101590002D1A01200BF0F8FE484610F0D3F8A5FBF9
:1015A000044557A3D3E90023834629462046FEF786
:1015B000A7FDCDF80490B3685449009120F07F490D
:1015C0000BF10202A3EB0A03D2B24B44012100202B
:1015D0000DF0FEF810F0FD0F0CD04D4A4D494E486D
:1015E00040F23D331DF0E3FC404080F311884FF0A2
:1015F000030002DF4FF0000B012211465B46CDF8DD
:1016000000B058460DF0A2F8384610F0DDFAB36885
:1016100006463D48A3EB0A0AA8FB000138A3D3E91C
:101620000023FEF76DFD19463C4B08933C4B069397
:1016300040F26D33079709933B698046CDE904B3C7
:10164000104600234FF47A72FEF75AFD354B0722FD
:10165000A9FB0331CDE9028002FB0911E01A65EB19
:1016600001014FF47A720023FEF74AFD0336F6B209
:10167000CDE9009053463246012158460CF0A4FFB4
:1016800010F0FD0F0CD0224A2249234840F26E335D
:101690001DF08DFC404080F311884FF0030002DF05
:1016A0000122022110460DB0BDE8F04F0BF06CBED8
:1016B0000023BDF82C100A98C4F82530A9F804308E
:1016C000A777C4F81F00918019E7114A16491248FC
:1016D00040F2BD231DF06BFC404080F311884FF0B9
:1016E000030002DFE4E66B7F43F040036B77281DC5
:1016F00015F0B0FD4FF00108E8832AE7AFF3008052
:101700008D49FD1A0700000000CA9A3B4D6E01008A
:10171000B05B0200E456020000510200516E01006D
:10172000816E01008D49FD1AA054020000000000E6
:10173000032801D00020704770B500200D4610F03E
:101740004BFA044618B190F93930002B01DA002029
:1017500070BD90F85C000E4EC0F3C00100F00700B1
:1017600017F032FA0B4A00F2B5500721E0FB0621D0
:10177000104605A3D3E90023FEF7C2FC20F07F400A
:101780002860204670BD00BF8D49FD1A070000008B
:1017900000CA9A3B8C49FD1A2DE9F04F93B0FF2403
:1017A0000B930B1D0A930023CDE90E330546164615
:1017B0008DF837409B464FF0040A1F4699469846DD
:1017C00010AB0693564B0593564B03930FAB019307
:1017D0000EAB002000930223109304900290334636
:1017E0000DF1370229460DF037F8022815D0109B6D
:1017F000CBB9FF2C26D03368BB4223D0BAF1000FFF
:1018000040D00AF1FF3AFF245FFA8AFA8DF8374098
:10181000D6E7294600200DF06BF8109B022BF8D07C
:10182000109B002BE5D0404A4049414840F2DB1371
:101830001DF0BDFB404080F311884FF0030002DF34
:10184000FF2CD8D19DF83700FF2829D011A9FFF728
:101850006FFF0028B4D0FF2C0E9F119B0AD0414689
:10186000384609930DF05EF80A9B03EB090290429B
:10187000099B17D8B8469DF837403768DDF83CB06B
:1018800099469DE72B49284A294840F2E3131DF069
:101890008EFB404080F311884FF0030002DFB0E779
:1018A000FF2C34D024480721A9FB000301FB093198
:1018B00019A3D3E90023FEF723FC044600B140340A
:1018C0001E4AABF57423A3F51073934216D81A4839
:1018D0000721A8FB000301FB08310FA3D3E9002374
:1018E000FEF70EFC164BA3FB0B2304EB93440B9B60
:1018F000044400201C6013B0BDE8F08F0BF1E87BBE
:101900000BF5D43B08F1FF380BF5A57BDFE76FF053
:10191000090013B0BDE8F08F00CA9A3B0000000038
:101920004D71010051710100345C0200785C0200CD
:1019300000510200805C02008D49FD1ABFBDF07F9E
:1019400083DE1B43000000002DE9F043C6684768B2
:1019500073683D491A68D0F80090A7F57423A3F581
:1019600010738B4283B0804607D907F1E87707F5FB
:10197000D43709F1FF3907F5A57773681169DD8957
:10198000CDF8049006F1100301AA0220FFF704FF2E
:1019900000284ED10199A1EB09031B0237D4084658
:1019A00049460CF0BFFF034628480721A3FB00026D
:1019B00001FB032122A3D3E90023FEF7A1FB346935
:1019C0000444002C346109DB40F2E24305FB03F3DD
:1019D000A3422FD2E41AA342FCD33461D8F80030DA
:1019E0001A48A3EB0903A3FB0002072101FB032113
:1019F00013A3D3E90023FEF783FB154BA3FB0737A3
:101A0000A0EB97402044306103B0BDE8F083484626
:101A10000CF088FF03460D480721A3FB000201FBE1
:101A2000032107A3D3E90023FEF76AFB3469241AD4
:101A3000C7E73469002CD1D103B0BDE8F08300BF03
:101A400000CA9A3B00000000BFBDF07F8D49FD1A1F
:101A500083DE1B43000000002DE9F041C46894F9C7
:101A60001630002B8CB0C0F2FF80636805460E462E
:101A7000002B40F0EE80A37D6FF30003A37518F0F8
:101A8000CBFA002018F0EEFA0021084618F0DCFA34
:101A900000222521082018F01BFB01200DF0B4FEC8
:101AA0000746002800F0C78007F11C0018F03AFB39
:101AB000874B0B930BA818F0F3FA864940F25B6052
:101AC00018F096FBA07DC0F34100253017F03AF8DE
:101AD0008148214618F05EFAA37D9B0603D4636813
:101AE000002B00F0A580962018F0D0FC00231A46A9
:101AF0001946184618F0E2FB16F04AFC002838D1C7
:101B0000A37D13F0180F59D1D4F800802F684046F8
:101B100016F0F8FF07446A6807F10901002018F081
:101B2000C1FC18F093FD18F039FC20460FF018FEA8
:101B3000811CC9B240463A4616F0F2FF80460028A2
:101B400040F0998016B9636A002B4ED1636843B1A7
:101B5000624B0122022100209D600BF049FC00280D
:101B600035D1204616F068FFD0B900200CB0BDE892
:101B7000F081A07DC0F3C00016F034F807460DF1E7
:101B80002B0016F07FFA79788046BA1C387818F066
:101B900029FC9DF82B000022414618F027FEB3E7F0
:101BA0004F4A5049504840F20B231DF000FA404084
:101BB00080F311884FF0030002DFD6E7012016F012
:101BC00011F84178821C007818F00CFC9CE7444A1C
:101BD0004649454840F206231DF0E9F9404080F3AC
:101BE00011884FF0030002DFBBE7414A0792414AE8
:101BF000059240F2F31200930892CDE90366CDE915
:101C0000016606943B46314601220CF031FD10F08E
:101C1000FD0F9BD0324A384933484FF4FA731DF018
:101C2000C6F9404080F311884FF0030002DF8DE7D2
:101C300018F0A4FB60E72A4A30492B484FF4C573DB
:101C40001DF0B5F9404080F311884FF0030002DF2A
:101C50002AE7636893F82030D90705D4636893F8BE
:101C600020309A077FF507AF2548214618F092F9F2
:101C700018F07AFA79E71A4A22491B4840F2E5132C
:101C80001DF095F9204B0721A8FB030301FB083148
:101C90000DA3D3E90023FEF733FA1C4902461C4882
:101CA0001DF085F9404080F311884FF0030002DFFA
:101CB0001848214618F06EF918F056FA6FF08B00AC
:101CC00054E700BFAFF3008000CA9A3B0000000059
:101CD000D6BE898E55555500B91D0000440300201D
:101CE000446002004452020000510200945102007C
:101CF0006D9101000D920100805F02009060020072
:101D0000A98C0100805102008D49FD1AD8600200A3
:101D1000986002004990010038B5044617F044F974
:101D2000A37DA27DC3F34103013303F00303032B1F
:101D300008BF002363F3420214BF03F125002520EE
:101D4000A27516F0FFFE63680BB123694BB90CF066
:101D5000E7FDC11C002018F019FCBDE8384018F060
:101D600075BC18F041FC05460CF0DAFDC11C0020E2
:101D700018F00CFC18F06AFC18F036FC29460CF040
:101D8000D1FD0B4A03460721A0FB020201FB032100
:101D900005A3D3E90023FEF7B3F923691B1A2361D6
:101DA00038BD00BFAFF3008000CA9A3B00000000BE
:101DB0008D49FD1A000000002DE9F0478AB0044665
:101DC00018F002FAC0B250B916F014FFC448214608
:101DD00018F0E0F80AB0BDE8F04718F0C5B918F0FF
:101DE00013FA054618F032FB074618F039FB814616
:101DF00018F056FD064618F035FD824618F0E8FA50
:101E0000EDB2804618F0C8FA16F0F4FE002DDDD0D1
:101E100001200DF0F9FC0546002800F04D8117F077
:101E2000FF07F6B240F0E380002E40F0DA804FF07A
:101E3000FF093A464B463146204617F0DBFA0028A8
:101E4000C4D02A7F616800238DF823305FFA88F7B9
:101E500002F00F03002900F0EC80616891F8201077
:101E6000880700F1E680072BB0D0A17D090740F17B
:101E70004381002B40F0C4806B7F063B1F2BA5D80D
:101E800004200DF0C1FC0028A0D018F0E7FB636A25
:101E9000074643B9238C40F2712202FB03F3B0FBE7
:101EA000F3F203FB120723681A698E4B0721A2FB8A
:101EB000030301FB023188A3D3E90023FEF720F9D5
:101EC0006FF44A7C00EB0C03BB42FFF47FAF18F0C9
:101ED00055FA4846636816F0BBF8E37D99078046DB
:101EE00040F1E581002800F0E2818246012718F0E8
:101EF00099F9CDE9027A09AB049305F11E03019328
:101F00002B7FC3F380130146074600930022012371
:101F1000204617F089FA384618F00AF918F04AF9FD
:101F2000002840F0CA817048214618F033F86268F2
:101F300092F8203043F0010382F82030A37D43F073
:101F40008003A3750DF07AFC172202714FF6FF7221
:101F5000C28095F81CC082463B46CCF3401C00F181
:101F60001C0207F1200E1D6858689968DF68D76069
:101F70001033734515605060916002F11002F2D188
:101F80001B6813609AF81C30CAF808406CF34513BC
:101F90008AF81C3018F028FB002ECAF81000099BA4
:101FA000CAF8143008BF4FF0FF098AF81990E37D92
:101FB00013F0020303D0B8F1000318BF01239AF80D
:101FC0001A2063F300028AF81A200DF037FCCAF8D1
:101FD0000C00DAF8000051460AB0BDE8F0470DF0F9
:101FE00057BC5FFA8AF016F0C1F8814621E7A07D60
:101FF0005FFA89F1C0F3C00016F04EF8814618E789
:10200000012B40F089806A7F0C2A7FF4DFAE2A7FA3
:10201000CDF80090194600230193D20905F124035D
:10202000204617F03BF900287FF42AAF2B7F03F0FE
:102030000F03002B70D16B7F052B7FF6C7AE252BCE
:102040003FF6C4AEA27D02F02102202A09D16268C7
:10205000002A00F0C180052B7FF6B8AE252B3FF695
:10206000B5AE63682BB12B7F03F00F03072B7FF412
:10207000ADAE03209DF823800DF0C6FB0546002879
:102080003FF4A4AE0DF0DAFB4FF6FF73EB800523AF
:102090002B71002F3CD17F20AB7E2876002E08BF0D
:1020A0004FF0FF0968F34103286885F81990AB7673
:1020B00029460DF0EDFB89E60C4A0D490D4840F22A
:1020C000C7231CF074FF404080F311884FF00300D9
:1020D00002DFA4E6AFF3008000CA9A3B00000000D4
:1020E000619001008D49FD1A519201004460020087
:1020F0009060020000510200B9F1FF0F8DF82490AA
:10210000C2F380184BD0227E91453FF4B2AE90E7E7
:1021100018F04EF9C0B2BFE7062B8CD04521D9404C
:1021200011F0010139D1012B10D16B7F0C2B7FF401
:102130004DAE2A7FCDF800900DF123030193D20913
:1021400005F12403204617F0A9F808BB2B7F03F004
:102150000F03042B7FF43AAE6B7F063B1F2B3FF639
:1021600035AEA37DDB077FF531AE18F05BF82B7F32
:102170000278C3F38013B3EBD21F7FF427AE08308D
:10218000062205F11E0122F06BF900287FF41EAE35
:102190006B7F002B7FF465AF18E66B7F5BE705F183
:1021A0001E0A09AA5146404616F096F800283FF448
:1021B0003DAFE37D03F0010343457FF437AF514664
:1021C000062204F1080022F04BF900287FF42EAF1C
:1021D0002B7F03F00F034CE69620079218F056F978
:1021E000079A104618F022F803200DF00DFB8046E8
:1021F00000283FF4EBAD0DF021FB4FF6FF73A8F87C
:102200000630052388F80430002F64D17F23002E88
:1022100088F8183014BF4B46FF2388F8193098F817
:102220001A30D8F800006FF3410388F81A3041469D
:102230000DF02EFB17F0F6FF06460322337862F30B
:10224000030333702B7F3278C3F3801363F3C71219
:102250000C2332704846737015F0FAFEE27D920747
:102260003DD500283BD03178324641F0400102F89C
:10227000021B0168C6F8021083889380D5F81E30CF
:10228000B3606B8CB381304617F052FF17F092FFAA
:10229000002835D118F0DAF9A37D204843F0010376
:1022A0002146A3750AB0BDE8F04717F073BEA77DBD
:1022B00004F1190AC7F3801719E6194A19491A488F
:1022C00040F2A7431CF073FE404080F311884FF0AA
:1022D000030002DF27E618F06BF8C3B297E7A37D8F
:1022E0003278C3F3801363F38612334603F8022B6C
:1022F000D4F81920C6F80220B4F81D209A80BDE752
:10230000074A0849084840F22B531CF050FE404051
:1023100080F311884FF0030002DFBBE775900100E6
:1023200044600200C460020000510200000000008E
:10233000F0B5C468A2894FF6FF739A4285B000F0E9
:102340008B80054617F050F92B89628AE08A1A447F
:1023500092B21044637FA28280B2411CE1825E0689
:102360004FF00001618204F118015FD403F03F00D7
:102370000B46A17F009004F11F0014F023FF0646D6
:10238000204603A917F05EFA039B94F85A101A78B6
:1023900061F3C3021A70039A94F85A301178C3F3A8
:1023A000400363F38201117017F036FE002017F02E
:1023B00059FE201D17F074FE2389A17A40F25B605C
:1023C00043EA014117F014FF304616F0BBFB0399B6
:1023D000204617F00BFA2146374817F0DBFD962010
:1023E00018F054F894F8410000F0070017F01EFFB1
:1023F00027682E68384616F085FB06446A6806F1A1
:102400000901012018F04EF818F020F9A1890331D4
:102410003246C9B2384616F083FB054618BB204643
:1024200016F00AFB50B9002005B0F0BD0A4603F0D3
:102430003F03E18B14F012FF0646A1E71F4A204933
:10244000204840F203131CF0B2FD404080F3118895
:102450004FF0030002DFE6E71B48214617F09AFD24
:1024600017F082FEDFE7154A18491648F9231CF0D9
:102470009EFD174B0721A5FB030301FB05310CA3B0
:10248000D3E90023FDF73CFE1249024612481CF036
:102490008EFD404080F311884FF0030002DF0F48AB
:1024A000214617F077FD17F05FFE6FF08B00BBE75A
:1024B00000CA9A3B000000003597010058610200F5
:1024C0004452020000510200A98C01008051020018
:1024D0008D49FD1AA861020098600200858C0100F8
:1024E00038B50D4614462AB90B481CF053FDAC8193
:1024F000204638BD094B196842F21072013119604B
:1025000091FBF2F302FB13130BB10120F1E7044836
:102510001CF040FDF9E700BF4C64020040140020AD
:102520005C640200F0B5064685B014460D4651B90C
:1025300034481CF02FFD14222946204622F011F8C1
:10254000002005B0F0BD304C098A30481CF022FD57
:10255000002741F605032068ADF8063001A98DF883
:1025600004701EF078FB42F62B23B8B9ADF80E309C
:102570008DF80C00264B039A1A6023602B8A0133D6
:102580002381032323742146304608F069F901466C
:102590000028D5D01F481CF0FDFCD1E720688DF83D
:1025A000087002A9ADF80A301EF055FB1A4F98B911
:1025B00042F602138DF80C00ADF80E30144B039A5E
:1025C0001A6023602B8A0233238128460423237454
:1025D00020F039F8B881D6E7104B3B6001233B82ED
:1025E0002B8AFB813946304608F0A4FD014620B114
:1025F00010F1780F01D00A48CDE70A481CF0CAFC58
:102600009EE700BF67640200601400207A64020045
:10261000942D00209164020044140020E124000065
:10262000AB640200C66402007FB51422002101A839
:1026300021F097FF01230A498DF8043001A8094BC6
:10264000039304F013FE014628B107481CF0A2FCD6
:1026500007B05DF804FB05481CF09CFCF8E700BFE0
:10266000F527000060003000D4640200F764020027
:102670002DE9F0430546427889B00F460178284895
:102680001CF088FC2B78023B012B09D825481CF054
:1026900081FC6C7814F001043CD023481CF07AFCD7
:1026A000012034E06B6831461B5BADF8063001A8B1
:1026B0008DF804808DF81080ADF812901EF0CBFAE2
:1026C00010B11A481CF066FC04F04CFE014638B10B
:1026D00017481CF05FFC02346B78A342E2DCDFE7B2
:1026E000144B1868596802AA083303C20FCB86E856
:1026F0000F003146104B02AA384605F07BFD01461B
:1027000020B10E481CF046FCFFF78EFF002009B0F8
:10271000BDE8F083A04641F6050904AEDCE700BF42
:10272000166502002C650200346502004265020055
:102730005365020090490200741400207165020084
:1027400070B503788AB004460E4607AD032B20D837
:10275000DFE803F002191B1D11492846FDF744FE6E
:10276000059563780493A3780393E3780293237920
:10277000019363790093A3790A4A1E2130461BF026
:102780005BFF0AB070BD0849E7E70849E5E708497B
:10279000E3E7084A0A2128461BF04EFFE0E700BFA6
:1027A0008E650200B0650200956502009C6502001E
:1027B000A66502000886020030B589B00D460446C1
:1027C0001EF043FE6946FFF7BBFF2A46074D084847
:1027D00069461CF0DFFB2868A04205D105F0C6F968
:1027E00000232B60FFF720FF09B030BD74140020D8
:1027F000D3650200F0B58BB00F4602A90646154618
:102800001C46FFF79DFF0A4902A8FDF7E3FD68B9E2
:102810000097A38807482A4602A91CF0BBFB012D9C
:1028200004D805493246204602F01CFD0BB0F0BD2D
:10283000F5650200106602007126000070B58AB0CE
:102840000C4605461EF001FE02A9FFF779FF194E5E
:102850006CB11948224602A91CF09CFB306805F0B7
:1028600085F900233360FFF7DFFE0AB070BD13481F
:1028700002A91CF08FFB3068A842F6D141F605038F
:102880000F49ADF806308DF804400E4B019A0B60ED
:102890001A600D4B4B6001230B814FF6FF73CB8108
:1028A0000C7407F0DDFF01460028DED007481CF05D
:1028B00071FBDAE7741400204766020065660200C7
:1028C00060140020942D002025250000746602006D
:1028D00008B5002003F0F2FE014620B105481CF0C7
:1028E00059FB002008BD04481CF054FBFFF79CFE78
:1028F000F7E700BF8D660200AD6602002DE9F04FDC
:1029000091B08407009302F004030293C2F3C20360
:1029100003F10103DDF86890039205460E46059326
:1029200040F0BA81041D30B1072909D86FF01B00AF
:1029300011B0BDE8F08F01F00706341DC6F108069E
:10294000009B4FF00008591E4FF0040A4FF0FF3370
:102950000193CDF810804746C34653460DB1009A07
:1029600022600598002800F3E8809848009A824287
:1029700003D397488242C0F0E080039AA4EB050E8F
:1029800092074FEA9E0000F103810F2F00F2B18001
:10299000002D00F0058107F140020DEB020C019AB9
:1029A0000CF8200C0CF8102C049801300490E7E08F
:1029B0007A285DD84B280ED8472859D829282DD8F1
:1029C000252852D054D820287AD02338D0F1000BB3
:1029D0004BEB000B74E04C382E2849D8DFE800F0B0
:1029E0007048484848484848484848484B4848483C
:1029F000484848484859484B4B595959704B6D48BD
:102A00007048184B184848827F4B48484B487F0015
:102A100000204FF0000B4FF0040A38E02A38C0B213
:102A2000012202FA00F010EA0E0F49D110F0625CA8
:102A30002FD110EA020B43D06046013C5444B4FB52
:102A4000FAF40AFB04F4002D61D0A3EB050CA444B6
:102A5000B4453FF66BAF002868D1042B47D159F835
:102A6000043B2360043404232AE0019A013A0192D2
:102A70004FF0000B24E011F8010C6C2834D111F850
:102A8000023C00206C2B8346C5D14FF0080A534608
:102A9000D3E709F1070929F007090734F9E802AB80
:102AA00024F0070435B106982044B0423FF63EAF0B
:102AB000C4E900AB08344FF0000B4FF0080A53464E
:102AC00011F8010F002878D0BBF1000F7FF470AF30
:102AD0002528F5D1019B013301934FF0010B4FF0F5
:102AE000040AECE7584694E700208346A5E7082B44
:102AF00002D06FF015001BE709F1070929F007095B
:102B0000F9E80223C4E9002308340823D8E768B9A8
:102B1000042B02D109F10409A4E7082BE9D109F13A
:102B2000070929F0070909F10809EDE7059A013AB3
:102B3000059259F8042B009210E7039A900720D5CC
:102B4000A4EB050E4FEA9E004FF0010CBEF5007F8E
:102B5000CFD20F2FCDD8F5B107F140020DEB020E09
:102B6000C0B2019A0EF8200C0EF8102CBCF1000F28
:102B70003FF41AAF60F07F000EF8200C08F1010856
:102B80000137C5F10802043406924FF6DA7E97E762
:102B90004FF0000CDAE7BCF1000F01D00136EFE78F
:102BA000029802360028EBD10098CDE90631FDF7F6
:102BB00023FCDDE906310644E2E7631BB3F5806FD1
:102BC00097D23DB9A6F10804E018B1E69845020095
:102BD00058890200029A28609B082B709DF81030DB
:102BE000C2B1EB7085F80280B8F1000F05D008A8DB
:102BF0000022C5F1010C97420ED1C5F101030DF180
:102C000020094FF0000A01930DF1300B574512D106
:102C1000601B8DE66B70E5E710F8013B190608D5DF
:102C200004EB0C0EB64503F07F033FF67FAE04F8CD
:102C3000013B0132DFE7B8F1000F03D099F9002022
:102C4000002A17DB029BD3B11AF80B2004F8012BE2
:102C50000022019B98182044B0423FF667AE99F8D5
:102C6000000004F8010B00990392204621F06BFC50
:102C7000039A14440AF1010A09F10109C6E799F817
:102C8000002055F822300093029B45F8223000982E
:102C9000FDF7B2FB421CDCE76FF00D0048E600BF19
:102CA0002DE9F04F97B000AF90F802A0D7F880B0B0
:102CB0003B62CBF3C0030446FA62BB61894641B96B
:102CC000457800780AEB800020444D4517D8A0EBEA
:102CD0000409E378FB61BAF1000F02D01BF0010F89
:102CE00016D1FB6953BBFB6A1BB13A6A49462046C1
:102CF00098474D4628465C37BD46BDE8F08F461CD8
:102D00003046FDF779FB0130304409F10109DCE779
:102D1000237862687A62FA6A9900796104EB830128
:102D2000002A40F000814D460E4601EB0A094FF0A3
:102D300000084E454CD101EB0A0610E01BF0020FD3
:102D4000D1D023789A007A6162687A62FA6A04EBD9
:102D50008301002A77D14D4601EB0A0690461BF00D
:102D6000050F0CBF02230123FB62FB6906EB430A3C
:102D70000BF00203BB625645BCD016F8021B16F8D6
:102D8000013C54F82390AF4B994502D3AE4B994583
:102D900036D3BB69002B40D0786A1CF0D2F80028EB
:102DA0003BD0E9468AB06A46A84B53617B6AC2E9C8
:102DB00006314FF400731384A54B42F8103FA54829
:102DC00000234FF4125100F013FD023DCD46D2E72F
:102DD00016F8013BF96254F82300FDF70DFBD7F814
:102DE0008430F96A01304BB1D7F8883098453EBF3E
:102DF000D7F8843023F8180008F10108054498E753
:102E0000BB6923B1786A1CF09CF80028C9D11BF07B
:102E1000010F05D1FB6AED1AADE7BB6A002BAAD002
:102E20004846FDF7E9FAD7F8843053B1D7F888302F
:102E300098453FBFD7F88420431C22F8183008F18A
:102E40000108054497E7BAF1000F72D01BF00406A1
:102E500072D0D046002607F1480052463B61B96265
:102E600021F071FBB96A3B6901EB0A02BA62FA69A7
:102E7000F9695200FA60BA6A02EB41023A610BF05A
:102E80000202BA603A69B96A8A4257D162787A62B4
:102E90001BF0020F32440CBF4FEA580100211BF017
:102EA000010FD2B240F09F801BF0040F14BF4046C8
:102EB0000020BB616270A070E1703A6A7969FB6AB8
:102EC00020469847051EFFF615AFBB6923707B6A45
:102ED0006370FB69E37041463A6AFB6A84F802A0BA
:102EE00007F148009847B0F10008C0F2B5807B694F
:102EF0003A6AA9EB0A01C91AFB68C91AD7E90A0399
:102F000098470028C0F2AA80A84408EB00054FF0BB
:102F1000000B07F1380AB34567D300213A6AFB6A10
:102F200008469847E6E656464FF0000807F1380095
:102F300093E75646D04697E7B04695E7BA6A12F847
:102F4000021BBA6212F8015C3E4A54F82500904216
:102F500002D33D4A90421ED3BA6932B1786A7B608F
:102F60001BF0EFFF7B6800288CD1BA6802BB08F128
:102F7000280207F1300C08F10100944407F15802CF
:102F800052FA80F008F102080CF8101C5FFA88F879
:102F900000F8105C76E7BA693AB1786A7B601BF09A
:102FA000D0FF7B6800287FF46DAF1BF0010F09D0C4
:102FB00006F1280207F13000711C161806F8205C93
:102FC000CEB25FE71BF0040F3FF45CAF08F12802BC
:102FD00007F1300008F1010102EB000808F8105C6D
:102FE0005FFA81F84EE7002063E71BF80A3087F8A4
:102FF000373054F82390D7F88430FBB133F81B8076
:103000003A6AFB6A012107F137009847002825DB5F
:103010000544B8F1000F06D14846FDF7EDF900F17F
:1030200001081FFA88F83A6AFB6A41464846984701
:10303000002813DB05440BF1010B6CE7D7F8848003
:10304000DEE700BF9845020058890200C46602000E
:10305000040000010C49020045464BE6054649E6DE
:10306000014B1860704700BF7001002080B5054615
:103070000E46174698461AF0BFFC034621F082FA26
:10308000DFF81890044649F8003042463046394689
:10309000A84754F8090001F00FFB00BF080000002A
:1030A0002DE9F047058B04462807904611D40229E4
:1030B00005F0070540F0CD8020461CF0D9F978B125
:1030C0000138218B042811D8DFE800F0C3106D858A
:1030D000950001290CBF45F0100545F0200525831A
:1030E00088F31188BFF36F8FBDE8F08701F0070AFE
:1030F000AA4500F0A6800027B9463E46A368002BEB
:1031000000F0BD8041F00801218388F31188BFF3EE
:103110006F8FA168002900F0BB800D68002900F0C6
:10312000B780D1F80480334652462046C047002D70
:1031300076D02B6829461D46F0E701F007035A1F99
:10314000012A1BD8002221F00701062B276889B22B
:10315000C4E9002209D13B4603E0628B013262835D
:103160001B68002BF9D141F00201218320461CF09D
:103170007FF900287BD041F0200177E0042B0AD1B1
:1031800021F0070189B2218320461CF071F910B1AA
:1031900041F020012183218B01F0070AAA4550D07C
:1031A0000027B946AAE7236921F0070141F006018B
:1031B000062DD3F8009021832DD1B9F1000F40D016
:1031C00041F00801218388F31188BFF36F8F3A49DA
:1031D0002046C84729E021F00701236941F0040196
:1031E00089B2042DD3F804902183E6D000273E460F
:1031F0004FF0040A82E721F00701236941F005013D
:1032000089B2052DD3F808902183D6D000273E46F9
:103210004FF0050A72E700273E464FF0060A6DE7B9
:103220002B4687E7B9F1000FD1D14FF02003EFF320
:10323000118883F31288BFF36F8F238B23F0080369
:103240002383258BEA062ED525F01003238305F072
:1032500007056669218B002EBFF66FAF0023276834
:10326000C4E9003321F0070141F001012183218BE2
:1032700001F0070AAA454FF000097FF43FAF002F85
:103280009BD041F00801218388F31188BFF36F8F31
:10329000002FC7D03D6839463346524620461CF0C1
:1032A00013F92F46F4E7AB067FF51AAF25F020039C
:1032B000238305F00705FFE6F5F401002DE9F0474B
:1032C000DFF85880044607464FF0010914B9384624
:1032D000BDE8F08794FAA4F5B5FA85F509FA05F387
:1032E0002E0108EB05156FEA030A24EA03042B7B81
:1032F000002BEBD058F806301B694BB9464404222A
:1033000073682846196807EA0A0700F05DFADDE7E6
:10331000284698470028D9D1F0E700BF6449020049
:1033200030B51049104889B0002220F01DFF0F4D24
:103330000F4900220023CDE9062300240E23CDE906
:103340000334CDE901440B4B00944FF440722846FE
:1033500019F0C8FF0849284620F04DFB204609B067
:1033600030BD00BF7D330000280B0020A0060020E8
:10337000403300206D3600007867020001481AF0E3
:103380003DBC00BF240500202DE9F04780461F48C2
:103390000F461CF08FF90646002830D0002528463D
:1033A000BDE8F087237B73B12368DB680BB120464F
:1033B000984723681B69D3B96368042219682046BB
:1033C00000F002FA013610344C45EBD3B8F1000F8F
:1033D000E5D0002DE2D02846FFF770FF0546002F0C
:1033E000F7D000214FF4A4701AF0E8FAF1E7204674
:1033F00098470028E0D00AFA06F31D43E2E7044CA0
:10340000DFF8109005464FF0010ADDE78814002030
:103410006449020084490200014B53F820007047C0
:103420006C4A020008B5034608462BB1044A1360F3
:1034300000F096FC002008BD6FF01500FBE700BF10
:103440007401002010B5044C237813B903481AF016
:10345000D5FB0123237010BDC02D002024050020C2
:1034600010B5044608481CF025F95CB1BFF35B8F2A
:10347000064B53E8001F013943E80012002AF8D137
:10348000BFF35B8F10BD00BF8014002084140020A8
:103490000020064BBFF35B8F014653E8000F43E863
:1034A0000012002AF9D1BFF35B8F7047801400200F
:1034B00070B5FFF7EDFF084C084E0546B44200D347
:1034C00070BD63685B792BB123685B6813B12946D3
:1034D000204698471034F1E764490200844902000D
:1034E00010B5044C044920461BF068FE034B1C60D9
:1034F00010BD00BF78040020584A02007814002054
:10350000084A094808B500231370084A1360084A9E
:103510004FF400411360FFF785FFBDE80840FFF757
:10352000DFBF00BFC12D0020B1F6010080140020D4
:103530008414002001460022014800231BF05FBED6
:103540007804002001481BF0F8BE00BF780400207A
:10355000024B014618681BF042BF00BF78140020E0
:1035600001481BF078BF00BF7804002070B5284BDD
:10357000187800284BD0FFF7E5FF054690B1BFF360
:103580005B8F244B53E8001F013943E80012002AE7
:10359000F8D1BFF35B8F204C204EB4422DD3284688
:1035A000FFF7D6FF1E4B1F4C1B68002B19DD20F0C8
:1035B00094FD4FF47A72A0FB020302FB0131C30BAE
:1035C000D4E9002043EA41439B1A4FEAD13140F24B
:1035D000E93261EB0001934271F1000101D3FFF781
:1035E00067FFD4E9003213F57A7342F10002C4E9AF
:1035F0000032BDE87040FFF7B3BF63685B7923B169
:10360000236829461B68204698471034C5E770BDDB
:10361000C02D002084140020644902008449020067
:1036200080140020200B002070B50D4D297861B961
:103630000120FFF7A9FE0B4C0B4EB44206D3FFF757
:1036400095FF0028FBD101232B7070BD63685B7967
:103650001BB1236820469B6898471034EDE700BFF4
:10366000C12D0020644902008449020000212DE997
:10367000F0470846FFF788FE044658B340F26768F3
:103680004FF0000920F07EFF1B4B1C4A1B581360B3
:1036900033B11B4B1B68092B02DD1A481AF0AEFA36
:1036A000194FDFF860A0002544B12046FFF706FE61
:1036B000044618B94FF0FF384FF0FF39FFF756FFB7
:1036C000064628B9B5B942464B4650461AF0BCFAF0
:1036D0003546E9E74FF0FF384FF0FF39D2E72B6866
:1036E0009B691BB100221146284698471035BD4200
:1036F000F5D3E8E7054DFAE7080000007C14002048
:10370000841400202405002084490200644902003A
:1037100013B518481BF0CEFF174B1B787BB14FF049
:103720002003EFF3118483F31288BFF36F8FFFF749
:103730001DFF84F31188BFF36F8F02B010BD0F4BD4
:103740001B68002BF9D050B900220023CDE90023DB
:103750000B484FF4004200231AF08AFEEDE70928D7
:10376000EBD1074820F00CFD064802B0BDE8104040
:103770001AF044BA84140020C12D00207C140020CB
:10378000280B00202405002010B5064B1B680446BA
:1037900098472146A06004481BF0AFFDBDE81040EB
:1037A000FFF7B6BF7401002078040020044A054BDF
:1037B0009B1AB1EBD30F34BF52F831000020704791
:1037C0007448020064490200084BC31A10B41B116C
:1037D00044680133237143689A71436819604368F0
:1037E00001225A7110BCFFF72DBE00BF64490200D0
:1037F0002DE9F04F8FB004AFC1F34A28B8600D46F1
:1038000091467B600C0DB8F1000F63D0002607F1E4
:1038100014034FF0040B4FF00A0AC7F80C80C7E9F5
:1038200007667E620193CDF808B0CDF800A007F1DD
:103830001C03F96832464846FFF732FAB0F5006FCC
:1038400003461CD36C468AB0D9F8041004AB264852
:10385000C3E9050140F2FF71D9611A464FF40071C6
:103860001984224B42F8103F214833464FF412513D
:10387000FFF7BEFFA5462C37BD46BDE8F08FC0F36D
:103880000A0804F11700184420F0070080083B6084
:10389000FFF750FE68F35325044690B13B68154A84
:1038A000C7E9083600F1100107F11403F961CDE909
:1038B00000A3CDF808B0F96807F11C034846FFF7EC
:1038C000EFF968F353257B68B9682A4620461BF058
:1038D00027FFD0E704F1170020F007008008FFF76A
:1038E00029FE0446EDE700BF8D67020004000001D9
:1038F0001C490200F5F601002DE9F04F87B0DDE923
:103900001269DDE9105A04460F4693469846A6B35D
:103910001021CDF80090334652460020CDF8149087
:10392000FEF7ECFF014605F117000844144B039124
:1039300004F007040BF0070BE40020F0070003EA93
:10394000412344EA8B1480081C43FFF7F3FD44EA4B
:103950000554054640B13EB10399CDF80090334679
:1039600052461030FEF7CAFF4346224639462846E3
:1039700007B0BDE8F04F1BF0D3BE3146D3E700BF20
:1039800000FE0F000EB403B503AB014653F8042B41
:103990000448019301F084F902B05DF804EB03B030
:1039A000704700BF33F80100CA0605D48B064CBF30
:1039B00002490349FFF7E6BF704700BF51650200A7
:1039C000506502002DE9F04F89B09B46149B069389
:1039D0009DF84CA0159B0593169B179E04930446D7
:1039E0000D469046BAF1000F00F09D8006F48073FA
:1039F00007931BF07DFE06F00209024600283ED028
:103A000091492046FFF7BEFF0746B9F1000F08D0E5
:103A100016F0440F35D18D492A462046FFF7B2FFF4
:103A2000074406F0010353B1894B8A4953F82A2011
:103A3000894B2046002A08BF1A46FFF7A3FF06F469
:103A40008073002B49D006F00803002B63D1B8F136
:103A5000000F66D0814942462046FFF793FF054696
:103A6000069B3D44002B6DD1049B002B73D1F307C3
:103A700000F1E48031462046FFF796FFD8E0074684
:103A8000C3E7774B18680028CAD0764B4FF47A7991
:103A90001B68B5FBF3F54FF46161B5FBF0F300FB78
:103AA000135509FB05F54FF03C0CB3FBF1F201FB9C
:103AB0001231B5FBF0FEB1FBFCF300FB1E550CFB15
:103AC000131109FB05F50091B5FBF0F56649CDE949
:103AD00001E52046FFF756FFA2E706F00803EBB129
:103AE000624B634953F82A202046FFF74BFF0546F7
:103AF000B8F1000F05D0594942462046FFF742FF72
:103B00000544BBF1000FABD05A495A462046FFF797
:103B100039FF0544A4E74FF0000BE1E706F0080584
:103B2000E6E745469CE7BBF1010F069B06D1002B5B
:103B300064D1049B002B7BD000250CE0002BF8D037
:103B40004D485CE04D48069B4D4922461BF0C8F9A4
:103B5000049B002B68D0DFF82C81DFF82C91049FA8
:103B60003146102F204628BF1027FFF71DFF4FF0CA
:103B7000000B5D4545DC059B49461A782046FFF75A
:103B800001FF4FF0010B1BF0070F03D14146204608
:103B9000FFF7F8FE5F453BD9059B494613F80B201C
:103BA0002046FFF7EFFE0BF1010BBBF1100FEAD13E
:103BB000364920464FF0000BFFF7E4FE5A46059BBE
:103BC0009A5CA2F120015F2928BF2E2230492046AD
:103BD000FFF7D8FE0BF1010BBBF1100F1DD01BF04E
:103BE000070F03D141462046FFF7CCFE5F455A46FA
:103BF000E5D841462046FFF7C5FEEBE71F4855468E
:103C0000A1E741462046FFF7BDFE0BF1010BB0E7EF
:103C100020492046FFF7B6FEC5E7059B3B440593C8
:103C2000049BDB1B04939AD1BAF1000F7FF41FAF02
:103C3000204609B0BDE8F04F1BF0EEBD064A05492D
:103C40002046FFF79FFE15E7D1670200D567020007
:103C50007C4A0200DE730200CC670200FA670200B1
:103C6000901400208C140020DE670200904A0200AD
:103C7000FE6702000468020069F8010033F80100E1
:103C8000A14C0000116802000968020013680200DC
:103C9000156802000F6802002DE9F0410F884B689B
:103CA0008E6886B005460C469046C7F382175BB116
:103CB000144A9B1A43F3CF01002920DB2078C0F37C
:103CC000C200FFF773FD03462146608851F8102BB0
:103CD0000197C2F34A22002A01EB0204C0F30B1041
:103CE00008BF00210022CDE90408CDE902140092AA
:103CF00031462846FFF766FE06B0BDE8F081002396
:103D0000E2E700BF7448020073B542F20F738B42C2
:103D100028BF0B4605680F4A0446052168461AF07D
:103D20008BFC63680C495B6806460B2228461BF037
:103D300066FD63683246694628465B681BF05FFD96
:103D4000636806495B681B2228461BF058FD02B0D9
:103D500070BD00BF3B6F02003468020018680200AB
:103D6000074A00210123904206D8064A01B90123DF
:103D70001360054B1860704740085B000121F2E7B3
:103D800040420F008C14002090140020014B0122AF
:103D90001A707047C22D0020014B00201960704737
:103DA000A8140020024B034801221A701BF034BDF6
:103DB000C32D0020C04A02000148FFF7A5BF00BF85
:103DC000C04A020010B5064B18680C46FFF724FBEA
:103DD00021460346BDE8104002480F22184700BFA5
:103DE000A8140020C04A020010B9074B1870704791
:103DF000064B1B781BB141F288301FF035BDA42063
:103E0000002119F0DBBD00BFC22D0020C32D002012
:103E10002DE9F843DFF874901D4F80460E460424C8
:103E200099F8005095B919F02FF8284632464146C6
:103E300018F0DCFF054619F031F8E5B101233B70BD
:103E400099F8003073B93046BDE8F88332464146F0
:103E5000002018F0CBFF0546EFE72046FFF7C4FF30
:103E6000651E2C46002019F005F80028EBD03B78A1
:103E7000002BF2D1E7E73B78002BE4D0013C204651
:103E8000FFF7B2FF3B78002BCAD1DCE7C32D00203F
:103E9000C22D0020F8B5074F0D4604464618B4421F
:103EA00001D12846F8BD14F8011BBB6801485B68C6
:103EB0009847F4E78C460200014B036000207047EE
:103EC000044B0200014B1868704700BF80010020BE
:103ED000F0B5082289B01BF0ACFECB6A03930B6BE4
:103EE00004934B6B05938B6B0693CB6B0793134635
:103EF0006A460C460646002711461046CDE9017772
:103F000000971BF0A9FD3146054630461BF0A4FD85
:103F1000216B0391616B0491A16B0591E16B0544E9
:103F2000CDE90617104611461BF096FD31460544B3
:103F300030461BF091FD0544206A0090606A0190B4
:103F4000A06A0290A06B0690E06B07903046CDE926
:103F5000047703971BF080FD0544606A0090A06A17
:103F6000D4F838C00190E06A0290CDF810C0606BC0
:103F7000D4F83CC00390CDE905C0206A07903046D4
:103F80001BF06AFD0544E06A0090206B0190606BB5
:103F90000290206A0690A06A07903046CDE9047727
:103FA00003971BF079FE236B0093636B0193A36B64
:103FB0000293E36B0393636A0693E36A07932D1AF4
:103FC000082330461BF068FE636B0093A36B0193DC
:103FD000E36B0293236A0393636A0493A36ACDE9B4
:103FE0000537236B07932D1A082330461BF054FE28
:103FF000A36B0093E36BCDE90137636A0393A36A74
:104000000493E36A0593636B07932D1A08233046E4
:104010001BF042FE2D1A10D40D4C35B90822314642
:1040200020461BF012FE01280FD0082322463146FD
:1040300030461BF031FE2D1AEFE7054A08233146C2
:1040400030461BF009FD2D18F8D409B0F0BD00BFB3
:10405000084B02000449431E0F3013F8012F8A5CFD
:104060001A708342F9D170478A680200F0B5264E73
:1040700007460C460FCE8DB001AD0FC50FCE0FC554
:1040800096E8070085E807003846002F38D0002C56
:1040900038D0381F2146024610344B780D781B0467
:1040A00043EA0563CD782B438D78043143EA052339
:1040B0008C4242F8043FF0D1144C04218A07036972
:1040C00016D1C3F30742A55C1A0EA25C42EA056250
:1040D000C3F30725DBB2655DE35C42EA054242EAD1
:1040E000032221F0030330336B4453F82C3C53403C
:1040F00050F8042F013153402C290361DED10120F7
:104100000DB0F0BD2046FBE7A84902008A68020016
:104110002DE9F047804600AF0C46002936D0E9462D
:104120008AB0D1E90012A3686D461C482E464FF0B4
:10413000050AC5E90501C5E9072346F810AF184887
:10414000324600234FF42151FFF752FBCD46D4E90C
:1041500003126369AD461348C5F810A0C5E905010F
:10416000C5E907230E48002332464FF42151FFF7DB
:104170003FFBCD46E3690C4A094801211BF029FBAE
:10418000A3690A4A064801211BF023FB2146404649
:1041900018F09AFEBD46BDE8F08700BF8A690200AC
:1041A0004C490200B9690200E8690200F76902009F
:1041B00030BFFFF7FDBF00BF2DE9F0410B4EDFF828
:1041C000308006EB0807CC1B0546324609492046DD
:1041D00020F0B9F9A01942460021083C20F0C1F9AD
:1041E0006C6707F10800BDE8F08100BF0000000027
:1041F0000400000084490200044B99685869884211
:1042000003D003494FF080520A6070475C2D0020B4
:1042100004ED00E070B5294C06460D4628482949B2
:104220001CF06CFCA36AD9043CD5254826491CF037
:1042300065FC1720A36A1A0504D5214823491CF000
:104240005DFC18201D4CA36A9B0512D51C48204913
:104250001CF054FCA36BA26A100409D51D4A18482F
:1042600001211BF0B6FA1EB1A36A23F40043A36236
:104270001920124CA36A590504D5114816491CF09F
:104280003DFC1A20A36ADA050ED50D4813491CF02F
:1042900035FC1B20094A936A43F47F439362002351
:1042A0002B7070BD1620C5E7A36A9B04F2D50448A5
:1042B0000B491CF023FC1C20ECE700BF00ED00E0E4
:1042C0004C490200256A02003B6A02004C6A020067
:1042D0005F6A0200786A02008D6A0200A86A020022
:1042E000C06A020010B5204C204921481CF006FC91
:1042F000A36A990136D51E481E491CF0FFFB1E20FB
:10430000A36ADA0104D51A481B491CF0F7FB1F20E9
:10431000154CA36A1B0304D5154818491CF0EEFB85
:104320002120A36A590304D5114815491CF0E6FB66
:1043300022200D4CA36A9A0304D50D4811491CF0A4
:10434000DDFB2320A36ADB0304D509480E491CF0DA
:10435000D5FB2420044A936A6FEA03436FEA1343B0
:10436000936210BD1D20CBE700ED00E0EF6A020074
:104370004C490200076B02001A6B0200346B02000A
:10438000526B0200776B0200916B02002DE9F8433B
:10439000364D804689463648364917461CF0AEFBF6
:1043A000AB6ADE0627D5344931481CF0A7FB11243F
:1043B000AB6A1D0704D531492D481CF09FFB122420
:1043C0002A4DAB6A980718D52D4929481CF096FB51
:1043D0006E6BAB6A190646D52A4A25483346012139
:1043E0001BF0F7F9B9F1000F03D0AB6A23F080039B
:1043F000AB62132403E01024DAE76FF015061B4DBF
:10440000AB6ADA0704D5204919481CF077FB14245D
:10441000AB6A9B0604D51D4915481CF06FFB15249B
:10442000124B9A6AD50602D49A6A90070AD55B683D
:10443000190507D54146304600F036FA10B180F331
:1044400009880224094B9A6A920642BF5A6A22F4EA
:1044500000525A629A6A42F0FF029A6200233B704D
:104460002046BDE8F8836FF01506C2E700ED00E0D6
:104470004C490200BC6B0200D26B02004C6A020085
:10448000056C02001D6C0200336C0200C06A020061
:104490002DE9F041664B8AB0D3F8048000AF0446A2
:1044A000C8F30805002686F31188BFF36F8F02F06A
:1044B0007F43B3F17F4F07D102F00C03082B12D1D9
:1044C0005C495D481CF01AFB002634460023FB7152
:1044D000EB1E092B00F28A80DFE803F00A80837D5F
:1044E00088888888888610074CBF0C460126EDE72F
:1044F000524951484E4D1CF001FB0023FB71EB6A01
:104500009A0705D54E494C481CF0F8FA002333E0D1
:10451000EB6A002B01DA4B49F5E7EB6A5B00F5D556
:10452000494945481CF0EAFA6B69A26943F4807373
:104530006B61BFF34F8FBFF36F8F6B6932F8022C43
:1045400023F480736B61BFF34F8FBFF36F8F4DF612
:1045500002739A4209D0AB6ADBB27BB3FA1D012128
:104560002046FFF713FF034606E02368374A324828
:1045700001211BF02EF92368FA79DAB907F1080551
:1045800004F1200C206861682A4603C2083464459F
:104590001546F7D17A6A002E44D0C2F3080121B93A
:1045A0006FEA52226FEA42227A6207F10801184646
:1045B000FFF7AEFD2837BD46BDE8F081AB6A13F4C6
:1045C0007F4F04D0F91D0120FFF724FECBE7AB6A33
:1045D000B3F5803F9AD3FFF785FEC4E7FA1D0021AB
:1045E000BEE7F91D0020EFE719498CE7194A1A4B7D
:1045F00018F4F87FE8468AB018BF13466A46174990
:10460000C2E905134FF400731384103D144BD561B8
:1046100042F8103F084800234FF41151FFF7E8F823
:10462000C54673E722F4FF7222F00102BCE700BF27
:1046300000ED00E0806C02004C490200AB6C02000F
:10464000C26C0200E36C0200F16C0200106D02000B
:104650002C6D0200676C0200526C0200506D02006B
:1046600004000001024A536943F01003536170478C
:1046700000ED00E0EFF30880EFF3098101B5724629
:10468000FFF706FF01BD00BF00F064FB202080F3B0
:10469000118808484FF40461401880F30988EFF34B
:1046A00014800221084380F31488BFF36F8F00F059
:1046B000BBF8000040470020084B9B6883420BD1A9
:1046C000EFF3058343B1064B5A6842F080525A60BB
:1046D0005A6A22F400425A621FF09FBA5C2D0020F1
:1046E00000ED00E0094A93686FF00A01D9670849B4
:1046F00098674B6843F080534B60002383F3118825
:10470000BFF36F8F9368D86F704700BF5C2D002098
:1047100000ED00E015498A684FF030001044EFF3D7
:10472000098C80E8F01F202080F31288BFF36F8F80
:104730000F4F4FF000664A698A603E604FF0740484
:10474000141920680B4C2060906F0023936780F34E
:10475000118804B5104600F025F9BDE8044002F1C7
:10476000300090E8F01F8CF3098870475C2D002022
:1047700004ED00E0D81400201EF0040F0CBFEFF38E
:104780000880EFF30980816911F8021C0229FFD02B
:1047900001B51CF0A8F901BD40B2002807DB044AAE
:1047A0004109012300F01F00834042F82130704787
:1047B00000E100E040B200280CDB4309064900F0AC
:1047C0001F0020330122824041F82320BFF34F8F86
:1047D000BFF36F8F704700BF00E100E0054B420957
:1047E00000F01F0053F82220012303FA00F01040CC
:1047F000704700BF00E100E040B20028A8BF00F110
:10480000604001F10101B8BF064B4FEA4111ACBF56
:1048100000F5614000F00F00C9B2B4BF195480F830
:104820000013704714ED00E00F4A08B50F4B22F05B
:104830007F029A60BFF34F8FBFF36F8FD3F888204A
:1048400022F47002C3F88820EFF3148323F00403EA
:1048500083F31488BFF36F8F18F0E8FB19F03CFC6A
:1048600000F074F818F034FC0000000000ED00E0E7
:1048700042F8203C009B42F81C3C0A49019B42F84C
:10488000183C029B42F8143C21F001014FF0807368
:1048900042F8043C42F8081C0023203A0265836772
:1048A000704700BF6D300000094A0346906870B140
:1048B00013F1160F406E05D0A0F140029A4205D8C0
:1048C000834203D2814228BF0020704700207047F6
:1048D0005C2D002008B514460A4A0B4B9060426FCD
:1048E0001A600D4600F05EF8204685F30988002125
:1048F00063B681F31188BFF36F8F00220023FEF7A8
:10490000B5FB00BF5C2D0020D81400200149102207
:104910000A60704710ED00E072B6404080F31188E5
:10492000BFF36F8FBFF34F8F30BF62B6BFF36F8F90
:10493000704700BF72B6494081F31188BFF34F8FB3
:1049400020BF80F3118862B6704700BF044800237F
:104950002021C2180133302B82F80013F9D170479F
:1049600000E100E001B5EFF30580A0F110004FEA8F
:10497000C0000449014409C99847BDE80140024903
:1049800008470000A0460200F9410000024B034A1C
:104990000348012100F08AB8000004200000002034
:1049A000B44B0200426E054B403A1A60044A402163
:1049B000C3E901121846012100F082B8DC1400207E
:1049C00000000B1508B503461048D0F89020C2F33C
:1049D0000722013A934207D90D480E4A01211AF0E5
:1049E000F8FE6FF0150008BDC0F898300A6822F094
:1049F0001F021A4342F01002C0F89C208A6842F05D
:104A00000102C0F8A0201846EDE700BF00ED00E06D
:104A100034490200676D0200F0B50E4685B01F46AE
:104A200004460025B5420DDA606810B397B1431E05
:104A300018420AD0104A11482B4601211AF0C9FE2B
:104A40006FF01502104605B0F0BD1F28F2D921689D
:104A50000B42EFD1236801931CF058F8A36801A919
:104A60000343D0B20393FFF7ADFF10F1160FE7D069
:104A7000421C01350C34D5E78D6D0200344902002B
:104A8000044B0522C3F89420BFF34F8FBFF36F8F01
:104A9000704700BF00ED00E0BFF35F8F024B0022C4
:104AA000C3F89420704700BF00ED00E010B5034C40
:104AB00001232278FFF7B0FF207010BDD52D002014
:104AC00008B50B4A00231278FFF7A6FF10F1160F66
:104AD00007D0084A0021D2F89030C3F30723984248
:104AE00000DB08BDC2F89800C2F8A0100130F2E760
:104AF000D52D002000ED00E0F0B559485949D0F817
:104B000090300D68C3F307239D4285B000F2A58065
:104B1000FFF7C2FF49680022954201F10C0117D14D
:104B2000514C524F25706846FFF7C6F900250646DE
:104B3000AE4220D123784A490020D1F89020C2F318
:104B400007229342C0F28380FFF79AFF00202DE0F6
:104B5000C0F8982051F80C3C23F01F03134343F096
:104B60001003C0F89C3051F8043C43F00103C0F836
:104B7000A0300132D0E7009800EB05114FEA051C88
:104B8000CB683B40B3F5000F4FD011D8B3F5001FF1
:104B900035D0B3F5800F3DD0B3F5801F17D0344A20
:104BA000344801211AF00CFE6FF0150005B0F0BD7D
:104BB000B3F1807F42D0B3F1007FF0D150F80C30D8
:104BC00088684A681BF0A2FF40F4802009E050F892
:104BD0000C3088684A681BF099FF40F0885040F418
:104BE0003020039001A92078CDE90123FFF7EAFEE8
:104BF0000028D9DB237801332370013598E750F87A
:104C00000C3088684A681BF081FF40F0885040F4FF
:104C10000020E6E750F80C3088684A681BF076FF01
:104C200040F0E06040F40030DBE750F80C3088687A
:104C30004A681BF06BFF40F08270D2E750F80C30EE
:104C400088684A681BF062FF40F08870C9E7C1F8C5
:104C50009830C1F8A00001336FE74FF0FF30A5E7AF
:104C600000ED00E0C04B0200D52D00200000F0FF59
:104C7000B06D02003449020008B5024B1B6898472A
:104C8000002008BDE8140020034B044A1860937804
:104C900043F0020393707047E81400208401002061
:104CA000F0B587B007460E4614460021102268462C
:104CB0001D461FF056FC02238DF802302A46054B94
:104CC000019321466846CDE9047619F0E1FC07B06E
:104CD000F0BD00BF2D0B020008B50649064821F0C3
:104CE0000701C1F1005202F580221AF0BCF8002041
:104CF00008BD00BF8B600020EC1400200E4A012389
:104D0000C2F840354FF080424FF08051C2F87835FC
:104D1000D1F83001082808D1D1F83411052904D878
:104D20000648415C09B1C2F838364FF08043012291
:104D3000C3F880250020704700E00140E16D0200CB
:104D400020B1034B800143F001031847704700BFB7
:104D5000504A020017F0F6B908B504481EF089FD64
:104D600000280CBF6FF01200002008BD644602004E
:104D70000E4B402970B528BF40210D4C46181D46EA
:104D8000B04203F1020304D1002305F811300748B3
:104D900070BD02781209A25C03F8022C10F8012BF6
:104DA00002F00F02A25C03F8012CE9E7F42D0020C9
:104DB000FE6D020030B503788BB0044607AD032BBF
:104DC00021D8DFE803F0021A1C1E12492846FBF71F
:104DD0000BFB059563780493A3780393E378029320
:104DE0002379019363790093A3790B4A0B481E2121
:104DF00019F022FC09480BB030BD0949E6E7094922
:104E0000E4E70949E2E7094A0A21284619F014FCB7
:104E1000DFE700BF8E650200B0650200D62D0020DE
:104E2000956502009C650200A665020008860200E6
:104E3000F8B55F4EBFF35B8F3468BFF35B8F14F040
:104E4000010455D05B4F5C4C5C4D5D483A462146B1
:104E50001AF058FDD0BB5B4A5B4801211AF0B0FC48
:104E60001F274FF0FF324FF0FF33012000F0CEF943
:104E700000F10C050221044628461EF08EFA3E235E
:104E8000037042234370012128461EF086FA08234E
:104E90000370412128461EF080FA054600F8017B88
:104EA000EFB1402200211FF05CFBBFF35B8F56E89F
:104EB000003F23F0010346E80032002AF7D1BFF398
:104EC0005B8F2046BDE8F84001F09ABA20222946BF
:104ED00020461FF0C5FA0028B7D00027C1E738499F
:104EE0001BF09BFE203105F121001BF096FEDCE754
:104EF000BFF35B8F3368BFF35B8F9B0756D52D499C
:104F00002F481BF0BBFB031E37DA304A2E48012125
:104F10001AF05FFC4FF0FF324FF0FF33012000F03A
:104F200075F900F10C070221054638461EF035FAE6
:104F30003E23037022234370012138461EF02DFAD0
:104F400009230370212138461EF027FA0346013059
:104F500034BB1F221A70FF2120221FF002FBBFF377
:104F60005B8F56E8003F23F0020346E80032002A38
:104F7000F7D1BFF35B8F2846A4E70F49BFF35B8FE0
:104F800033680E48BFF35B8F13F0040F01F120026A
:104F9000084B18BF014610461AF003FD0446B9E756
:104FA000002207491A701BF038FED8E7F8BD00BF91
:104FB000F8140020E04B0200752E0020606E020005
:104FC000952E0020166E0200D44802003F6E0200AB
:104FD00070B5214CBFF35B8F2368BFF35B8FDA079B
:104FE00006460D4601D50C2070BD012931D8BFF30E
:104FF0005B8F54E8003F43F0020244E8002100299F
:10500000F7D1BFF35B8F9B07EDD4144831461BF0FB
:1050100004FE134806F120011BF0FFFDBFF35B8F78
:1050200075B154E8003F43F0040344E80032002A1D
:10503000F7D1BFF35B8F0B4800F0A6F80020D3E751
:1050400054E8003F23F0040344E80032002AF0D083
:10505000F6E71220C8E700BFF8140020952E0020C4
:10506000B52E00209401002070B5067E044676B966
:10507000C3681D8842F22602954245D00FD842F2FD
:10508000010295424FD042F225039D4213D02A4B94
:10509000D3F85C3120465B69BDE87040184742F2A6
:1050A0005E039D42F3D103210C301EF09FF9E068AE
:1050B00090F840102EE003210C301EF097F92046A6
:1050C00015F0BCFEBFF35B8F1C4B1A68BFF35B8F00
:1050D000920707D50C26314642F225001BF079FDD8
:1050E000002070BDBFF35B8F53E8002F42F0010139
:1050F00043E800100028F7D1BFF35B8FD307E9D452
:105100000F4800F041F8E6E703210C301EF06EF97D
:10511000E0683146FFF75CFF0646204615F08EFE3C
:1051200031462846DAE7DA7802F07F02DA701A7937
:1051300022F001021A71AAE700000020F8140020F2
:105140009401002030B50A4D0A4B85B00024284652
:10515000029303941EF04EFF02AB009328460649CB
:105160000A234FF4A36218F01BFF204605B030BDA0
:10517000600B00208B6E0200803600200146014843
:1051800018F046BF600B0020014601481EF005BF25
:10519000600B00200378012B30B513D0022B27D0F1
:1051A0007BB9194B0A4603F1100453F8045B42F82B
:1051B000045BA342F9D11B78137043884B731B0A1D
:1051C0008B7330BD104B0A4603F1100453F8045B97
:1051D00042F8045BA342F9D11B78137043684B7308
:1051E000C3F307221B0CCB731B0A8A730B74E8E70B
:1051F00000F1100350F8042B41F8042B9842F9D128
:1052000003780B70DDE700BF946E020038B50546E9
:1052100005481EF07EF8044620B100210C301EF037
:10522000B8F82576204638BD48060020132810B56A
:105230000CD10A481EF06DF8044628B100210C304C
:105240001EF0A7F801232376204610BD09B10448BB
:10525000F0E7BDE810400120FFF7D8BF740600203A
:10526000C4050020F0B5054685B00E461746AB884C
:10527000012B0ED928461EF0C9F8044648B1AB8868
:10528000984208D90E4A0093022103460D481AF0AD
:10529000AAFA05B0F0BD28461EF0B8F8013C2B680C
:1052A0008DF80800394602A88DF809400393B047ED
:1052B0000028EED0214628461EF098F8D7E700BF18
:1052C000A56E0200B4480200C368034A1B78034875
:1052D00002211BF058BD00BFD06E0200CC48020076
:1052E00070B5C6683378B6F801406BB90F21204617
:1052F00002F096FD054640B9094B1A8822B96FEABB
:1053000004506FEA1050188070BDF37803730121C8
:1053100002F058FC2846BDE8704002F027BC00BFF0
:10532000982D002010B5C368B3F801400121204634
:1053300002F076FD38B92346054A0648BDE810401C
:1053400001211BF020BDBDE8104002F00FBC00BFE2
:10535000F86E0200CC48020010B5C3681C88012119
:10536000204602F05DFD38B92346054A0548BDE8F0
:10537000104001211BF007BDBDE8104002F0F6BB54
:10538000F86E0200CC48020010B501210C301EF06E
:1053900035F8BDE810400378024A034801211BF0AC
:1053A000F2BC00BF1C6F0200CC48020073B5C56898
:1053B000B5F801600121304602F032FD044640B9E3
:1053C0001B4A1C483346012102B0BDE870401BF067
:1053D000DABC2B781A2B19D1C378012B24D14FF4C6
:1053E000806104301BF0D8FC43050FD4D4F8A03002
:1053F00000936946D4F8A8300193204603F074FA6C
:10540000204602B0BDE8704002F0B0BB2B785BB91B
:10541000B5F80330A4F89E30B5F80530A4F8A430F0
:10542000B5F80730A4F8A630204602F053FDE7E7B0
:10543000F86E0200CC480200024A034801211BF02A
:10544000A0BC00BF3E6F0200CC480200B0B50B46C6
:105450000D8A00AF04462946D868FFF789FC8AB058
:105460006A46094BC2E9053440F202439384074B74
:10547000C2E907504FF4325142F8103F04481BF084
:105480009AFCBD46B0BD00BF586F02000500000188
:10549000CC48020037B502EBC303934204D103B0FA
:1054A000BDE83040FFF7D2BF144614F8085B8542D0
:1054B00011D10B8A54789C4207D9084A00900121E7
:1054C00007481AF090F903B030BD5368084603B09E
:1054D000BDE8304018472246DFE700BF7A6F020080
:1054E000CC48020010B5012104460C301DF086FFA7
:1054F0002146034A0078BDE810400B23FFF7CABFDE
:10550000484D020070B5C568B5F80160012130460C
:1055100002F086FC044638B933460D4A0D48BDE812
:10552000704001211BF02FBC2B783BB9D5F803301C
:10553000C0F8AC30D5F80730C0F8B030201D4FF4BB
:1055400000511BF029FC2046BDE8704002F00EBB64
:10555000F86E0200CC4802002DE9F74FDFF82CB1BD
:10556000BFF35B8F8046894617464FF0000A5BE821
:10557000004F4BE800A3002BF9D1BFF35B8F264609
:1055800044B9434A43484346012103B0BDE8F04FC4
:105590001BF0F9BB204615F0B5FB3F4D0C2303FB78
:1055A00000504288424520D0204615F0ABFB0C232A
:1055B00003FB00504388394A009336484346012193
:1055C0001AF011F9BFF35B8F5BE8003F4BE8006214
:1055D000002AF9D1BFF35B8F002B54D01E46304612
:1055E00003B0BDE8F04F15F029BCA7420FD020460C
:1055F0001DF08AFE04F10C08012351464046237633
:105600001DF0C7FE3A8AF96840461DF0CCFE2046E0
:1056100015F078FB0C2707FB00504368ABB1B9F1DC
:10562000000F12D1204615F06DFB07FB0050012141
:105630004268D2E90003127A03F01F07B9405B0900
:10564000DAB100EB83001BF0A7FB204615F05AFBF4
:105650000C2707FB00508368002BC0D0204615F0B4
:1056600051FB784305F80090204615F04BFB07FBF3
:105670000055A86818F0C2FAB1E7C94300EB8300EF
:105680001BF09CFBE1E703B0BDE8F08F4001002078
:105690009C6F0200CC480200FC140020C46F020082
:1056A00038B5042104460C301DF0A8FE034640889E
:1056B0005D7818B119782246FFF74EFF25B10348EF
:1056C000BDE8384018F09ABA38BD00BF2801002064
:1056D0002DE9F84F484FDFF8248107F11409FB68E2
:1056E00048466FF39433FB6002F0F8F9451C4248DA
:1056F0004FF0FF324FF0FF33294618F0F3FE60B150
:105700003F49404840F63233424619F050FC404091
:1057100080F311884FF0030002DF374EDFF8E8B066
:1057200015B918F0C9F8DAE7F368C3F38633022B2A
:1057300052D9042B5AD1337B002B50D1334800224D
:1057400000231DF0EAFD044660B931492D4840F6BA
:10575000C423424619F02BFC404080F311884FF0DF
:10576000030002DFDFF8ACA02B484FF0FF324FF010
:10577000FF3318F069FADAF840215AB1274A224873
:1057800001211BF0FEFADAF8400115F057FB002268
:10579000CAF8402120461DF0C4FDCAF84001204649
:1057A000FFF762FC0346B8B11D4A174801211BF000
:1057B000EAFA194818F022FA204615F0A3FA194B14
:1057C0000C2202FB0033588818B122461F21FFF734
:1057D000C3FE204615F032FB1436013DA0E7012B35
:1057E000FAD13069383802F079FEF5E70E4A022125
:1057F00058461BF0C8FAEFE7A4010020F76F02003B
:105800002B70020034700200CC48020044010020DA
:105810003F87020000000020280100205170020094
:105820006C700200FC1400208E70020070B5032121
:1058300004460C301DF0E2FD0578B0F80100E36885
:1058400040F6354290421B7806D1BDE87040084AC8
:10585000084802211BF097BA18B122461946FFF7F3
:105860007BFE25B10448BDE8704018F0C7B970BD93
:10587000AF700200CC480200280100202DE9F84F4B
:10588000D0F80C80018A98F80040012303EB8403D0
:105890008B4200AF7CD96D468AB06A463F48C2E968
:1058A00007310523C2E905044FF4215142F8103FA6
:1058B0003B481BF080FAAD46BD46BDE8F88F394A3B
:1058C00037485B4601211BF05EFA013598F800303D
:1058D0009D42F1DA08EB85030F21B3F801B0B3F86C
:1058E0000360584602F09CFA04460028E7D000F115
:1058F000280B16B34FF02003EFF3118283F31288C5
:10590000BFF36F8FE3696BB1013BE36182F31188F1
:10591000BFF36F8F204601F0ADFF013E18F06EF926
:10592000B6B2E6E7636963B982F31188BFF36F8F9C
:105930001B48524601211BF024FA204602F016F9BA
:10594000C3E7A169186860618B4208BFA06182F358
:105950001188BFF36F8F4FF02002EFF3118182F3B4
:105960001288BFF36F8FDA68E261C3F80C90C3F856
:105970000090626A4AB9C4E9083381F31188BFF321
:105980006F8F584618F006FBC4E713606362F4E7B4
:105990000025DFF814A0A94698E700BFE5700200D3
:1059A000CC4802000F7102002B71020070B5C36871
:1059B0001D784DBBB3F801600F21304602F030FA7C
:1059C000044638B93346114A1148BDE870400121F8
:1059D0001BF0D9B9294602F0F5F8A378012B04D0C1
:1059E0002046BDE8704002F0C1B8BFF35B8F63682A
:1059F000BFF35B8FDB07F3D52046022102F0E2F80C
:105A0000284601F0E9FAEBE770BD00BF42710200E1
:105A1000CC48020010B5C1E900239DF808300B7294
:105A20000C4615F06FF9034B0C2202FB00335C604F
:105A300010BD00BFFC1400202DE9F0474FF0FF32ED
:105A40004FF0FF3306461748174D0F461DF061FC17
:105A5000044600F10C0A00214FF0000850461DF0EA
:105A600098FC84F81880204615F04CF94FF00C098A
:105A700009FB00504680204615F044F909FB005010
:105A8000C0F80880204615F03DF909FB00550321B8
:105A90005046C5F804801DF080FC068087702046C3
:105AA000BDE8F0871C060020FC14002038B5054630
:105AB0000C4619B9FFF7C0FF0446C8B140F635439C
:105AC0009D420FD12046FFF7CFFA054640B103466D
:105AD000094A0A4801211BF056F9204615F0AEF993
